{
  "contractName": "BackDoorCasino",
  "abi": [
    {
      "inputs": [
        {
          "internalType": "string",
          "name": "_baseTokenURI",
          "type": "string"
        }
      ],
      "stateMutability": "nonpayable",
      "type": "constructor"
    },
    {
      "inputs": [],
      "name": "ApprovalCallerNotOwnerNorApproved",
      "type": "error"
    },
    {
      "inputs": [],
      "name": "ApprovalQueryForNonexistentToken",
      "type": "error"
    },
    {
      "inputs": [],
      "name": "ApproveToCaller",
      "type": "error"
    },
    {
      "inputs": [],
      "name": "BalanceQueryForZeroAddress",
      "type": "error"
    },
    {
      "inputs": [],
      "name": "InvalidQueryRange",
      "type": "error"
    },
    {
      "inputs": [],
      "name": "MintERC2309QuantityExceedsLimit",
      "type": "error"
    },
    {
      "inputs": [],
      "name": "MintToZeroAddress",
      "type": "error"
    },
    {
      "inputs": [],
      "name": "MintZeroQuantity",
      "type": "error"
    },
    {
      "inputs": [],
      "name": "OwnerQueryForNonexistentToken",
      "type": "error"
    },
    {
      "inputs": [],
      "name": "OwnershipNotInitializedForExtraData",
      "type": "error"
    },
    {
      "inputs": [],
      "name": "TransferCallerNotOwnerNorApproved",
      "type": "error"
    },
    {
      "inputs": [],
      "name": "TransferFromIncorrectOwner",
      "type": "error"
    },
    {
      "inputs": [],
      "name": "TransferToNonERC721ReceiverImplementer",
      "type": "error"
    },
    {
      "inputs": [],
      "name": "TransferToZeroAddress",
      "type": "error"
    },
    {
      "inputs": [],
      "name": "URIQueryForNonexistentToken",
      "type": "error"
    },
    {
      "anonymous": false,
      "inputs": [
        {
          "indexed": true,
          "internalType": "address",
          "name": "owner",
          "type": "address"
        },
        {
          "indexed": true,
          "internalType": "address",
          "name": "approved",
          "type": "address"
        },
        {
          "indexed": true,
          "internalType": "uint256",
          "name": "tokenId",
          "type": "uint256"
        }
      ],
      "name": "Approval",
      "type": "event"
    },
    {
      "anonymous": false,
      "inputs": [
        {
          "indexed": true,
          "internalType": "address",
          "name": "owner",
          "type": "address"
        },
        {
          "indexed": true,
          "internalType": "address",
          "name": "operator",
          "type": "address"
        },
        {
          "indexed": false,
          "internalType": "bool",
          "name": "approved",
          "type": "bool"
        }
      ],
      "name": "ApprovalForAll",
      "type": "event"
    },
    {
      "anonymous": false,
      "inputs": [
        {
          "indexed": true,
          "internalType": "uint256",
          "name": "fromTokenId",
          "type": "uint256"
        },
        {
          "indexed": false,
          "internalType": "uint256",
          "name": "toTokenId",
          "type": "uint256"
        },
        {
          "indexed": true,
          "internalType": "address",
          "name": "from",
          "type": "address"
        },
        {
          "indexed": true,
          "internalType": "address",
          "name": "to",
          "type": "address"
        }
      ],
      "name": "ConsecutiveTransfer",
      "type": "event"
    },
    {
      "anonymous": false,
      "inputs": [
        {
          "indexed": true,
          "internalType": "address",
          "name": "previousOwner",
          "type": "address"
        },
        {
          "indexed": true,
          "internalType": "address",
          "name": "newOwner",
          "type": "address"
        }
      ],
      "name": "OwnershipTransferred",
      "type": "event"
    },
    {
      "anonymous": false,
      "inputs": [
        {
          "indexed": false,
          "internalType": "address",
          "name": "account",
          "type": "address"
        }
      ],
      "name": "Paused",
      "type": "event"
    },
    {
      "anonymous": false,
      "inputs": [
        {
          "indexed": false,
          "internalType": "address",
          "name": "account",
          "type": "address"
        }
      ],
      "name": "Presaled",
      "type": "event"
    },
    {
      "anonymous": false,
      "inputs": [
        {
          "indexed": true,
          "internalType": "address",
          "name": "from",
          "type": "address"
        },
        {
          "indexed": true,
          "internalType": "address",
          "name": "to",
          "type": "address"
        },
        {
          "indexed": true,
          "internalType": "uint256",
          "name": "tokenId",
          "type": "uint256"
        }
      ],
      "name": "Transfer",
      "type": "event"
    },
    {
      "anonymous": false,
      "inputs": [
        {
          "indexed": false,
          "internalType": "address",
          "name": "account",
          "type": "address"
        }
      ],
      "name": "Unpaused",
      "type": "event"
    },
    {
      "anonymous": false,
      "inputs": [
        {
          "indexed": false,
          "internalType": "address",
          "name": "account",
          "type": "address"
        }
      ],
      "name": "Unpresaled",
      "type": "event"
    },
    {
      "inputs": [],
      "name": "allowedPublic",
      "outputs": [
        {
          "internalType": "bool",
          "name": "",
          "type": "bool"
        }
      ],
      "stateMutability": "view",
      "type": "function",
      "constant": true
    },
    {
      "inputs": [
        {
          "internalType": "address",
          "name": "to",
          "type": "address"
        },
        {
          "internalType": "uint256",
          "name": "tokenId",
          "type": "uint256"
        }
      ],
      "name": "approve",
      "outputs": [],
      "stateMutability": "nonpayable",
      "type": "function"
    },
    {
      "inputs": [
        {
          "internalType": "address",
          "name": "owner",
          "type": "address"
        }
      ],
      "name": "balanceOf",
      "outputs": [
        {
          "internalType": "uint256",
          "name": "",
          "type": "uint256"
        }
      ],
      "stateMutability": "view",
      "type": "function",
      "constant": true
    },
    {
      "inputs": [],
      "name": "baseTokenURI",
      "outputs": [
        {
          "internalType": "string",
          "name": "",
          "type": "string"
        }
      ],
      "stateMutability": "view",
      "type": "function",
      "constant": true
    },
    {
      "inputs": [
        {
          "internalType": "uint256",
          "name": "tokenId",
          "type": "uint256"
        }
      ],
      "name": "explicitOwnershipOf",
      "outputs": [
        {
          "components": [
            {
              "internalType": "address",
              "name": "addr",
              "type": "address"
            },
            {
              "internalType": "uint64",
              "name": "startTimestamp",
              "type": "uint64"
            },
            {
              "internalType": "bool",
              "name": "burned",
              "type": "bool"
            },
            {
              "internalType": "uint24",
              "name": "extraData",
              "type": "uint24"
            }
          ],
          "internalType": "struct IERC721A.TokenOwnership",
          "name": "",
          "type": "tuple"
        }
      ],
      "stateMutability": "view",
      "type": "function",
      "constant": true
    },
    {
      "inputs": [
        {
          "internalType": "uint256[]",
          "name": "tokenIds",
          "type": "uint256[]"
        }
      ],
      "name": "explicitOwnershipsOf",
      "outputs": [
        {
          "components": [
            {
              "internalType": "address",
              "name": "addr",
              "type": "address"
            },
            {
              "internalType": "uint64",
              "name": "startTimestamp",
              "type": "uint64"
            },
            {
              "internalType": "bool",
              "name": "burned",
              "type": "bool"
            },
            {
              "internalType": "uint24",
              "name": "extraData",
              "type": "uint24"
            }
          ],
          "internalType": "struct IERC721A.TokenOwnership[]",
          "name": "",
          "type": "tuple[]"
        }
      ],
      "stateMutability": "view",
      "type": "function",
      "constant": true
    },
    {
      "inputs": [
        {
          "internalType": "uint256",
          "name": "tokenId",
          "type": "uint256"
        }
      ],
      "name": "getApproved",
      "outputs": [
        {
          "internalType": "address",
          "name": "",
          "type": "address"
        }
      ],
      "stateMutability": "view",
      "type": "function",
      "constant": true
    },
    {
      "inputs": [
        {
          "internalType": "address",
          "name": "owner",
          "type": "address"
        },
        {
          "internalType": "address",
          "name": "operator",
          "type": "address"
        }
      ],
      "name": "isApprovedForAll",
      "outputs": [
        {
          "internalType": "bool",
          "name": "",
          "type": "bool"
        }
      ],
      "stateMutability": "view",
      "type": "function",
      "constant": true
    },
    {
      "inputs": [],
      "name": "maxTotalSupply",
      "outputs": [
        {
          "internalType": "uint256",
          "name": "",
          "type": "uint256"
        }
      ],
      "stateMutability": "view",
      "type": "function",
      "constant": true
    },
    {
      "inputs": [],
      "name": "name",
      "outputs": [
        {
          "internalType": "string",
          "name": "",
          "type": "string"
        }
      ],
      "stateMutability": "view",
      "type": "function",
      "constant": true
    },
    {
      "inputs": [],
      "name": "owner",
      "outputs": [
        {
          "internalType": "address",
          "name": "",
          "type": "address"
        }
      ],
      "stateMutability": "view",
      "type": "function",
      "constant": true
    },
    {
      "inputs": [
        {
          "internalType": "uint256",
          "name": "tokenId",
          "type": "uint256"
        }
      ],
      "name": "ownerOf",
      "outputs": [
        {
          "internalType": "address",
          "name": "",
          "type": "address"
        }
      ],
      "stateMutability": "view",
      "type": "function",
      "constant": true
    },
    {
      "inputs": [],
      "name": "paused",
      "outputs": [
        {
          "internalType": "bool",
          "name": "",
          "type": "bool"
        }
      ],
      "stateMutability": "view",
      "type": "function",
      "constant": true
    },
    {
      "inputs": [],
      "name": "presalePrice",
      "outputs": [
        {
          "internalType": "uint256",
          "name": "",
          "type": "uint256"
        }
      ],
      "stateMutability": "view",
      "type": "function",
      "constant": true
    },
    {
      "inputs": [],
      "name": "presaled",
      "outputs": [
        {
          "internalType": "bool",
          "name": "",
          "type": "bool"
        }
      ],
      "stateMutability": "view",
      "type": "function",
      "constant": true
    },
    {
      "inputs": [],
      "name": "price",
      "outputs": [
        {
          "internalType": "uint256",
          "name": "",
          "type": "uint256"
        }
      ],
      "stateMutability": "view",
      "type": "function",
      "constant": true
    },
    {
      "inputs": [],
      "name": "renounceOwnership",
      "outputs": [],
      "stateMutability": "nonpayable",
      "type": "function"
    },
    {
      "inputs": [
        {
          "internalType": "address",
          "name": "from",
          "type": "address"
        },
        {
          "internalType": "address",
          "name": "to",
          "type": "address"
        },
        {
          "internalType": "uint256",
          "name": "tokenId",
          "type": "uint256"
        }
      ],
      "name": "safeTransferFrom",
      "outputs": [],
      "stateMutability": "nonpayable",
      "type": "function"
    },
    {
      "inputs": [
        {
          "internalType": "address",
          "name": "from",
          "type": "address"
        },
        {
          "internalType": "address",
          "name": "to",
          "type": "address"
        },
        {
          "internalType": "uint256",
          "name": "tokenId",
          "type": "uint256"
        },
        {
          "internalType": "bytes",
          "name": "_data",
          "type": "bytes"
        }
      ],
      "name": "safeTransferFrom",
      "outputs": [],
      "stateMutability": "nonpayable",
      "type": "function"
    },
    {
      "inputs": [
        {
          "internalType": "address",
          "name": "operator",
          "type": "address"
        },
        {
          "internalType": "bool",
          "name": "approved",
          "type": "bool"
        }
      ],
      "name": "setApprovalForAll",
      "outputs": [],
      "stateMutability": "nonpayable",
      "type": "function"
    },
    {
      "inputs": [
        {
          "internalType": "bytes4",
          "name": "interfaceId",
          "type": "bytes4"
        }
      ],
      "name": "supportsInterface",
      "outputs": [
        {
          "internalType": "bool",
          "name": "",
          "type": "bool"
        }
      ],
      "stateMutability": "view",
      "type": "function",
      "constant": true
    },
    {
      "inputs": [],
      "name": "symbol",
      "outputs": [
        {
          "internalType": "string",
          "name": "",
          "type": "string"
        }
      ],
      "stateMutability": "view",
      "type": "function",
      "constant": true
    },
    {
      "inputs": [
        {
          "internalType": "uint256",
          "name": "tokenId",
          "type": "uint256"
        }
      ],
      "name": "tokenURI",
      "outputs": [
        {
          "internalType": "string",
          "name": "",
          "type": "string"
        }
      ],
      "stateMutability": "view",
      "type": "function",
      "constant": true
    },
    {
      "inputs": [
        {
          "internalType": "address",
          "name": "owner",
          "type": "address"
        }
      ],
      "name": "tokensOfOwner",
      "outputs": [
        {
          "internalType": "uint256[]",
          "name": "",
          "type": "uint256[]"
        }
      ],
      "stateMutability": "view",
      "type": "function",
      "constant": true
    },
    {
      "inputs": [
        {
          "internalType": "address",
          "name": "owner",
          "type": "address"
        },
        {
          "internalType": "uint256",
          "name": "start",
          "type": "uint256"
        },
        {
          "internalType": "uint256",
          "name": "stop",
          "type": "uint256"
        }
      ],
      "name": "tokensOfOwnerIn",
      "outputs": [
        {
          "internalType": "uint256[]",
          "name": "",
          "type": "uint256[]"
        }
      ],
      "stateMutability": "view",
      "type": "function",
      "constant": true
    },
    {
      "inputs": [],
      "name": "totalSupply",
      "outputs": [
        {
          "internalType": "uint256",
          "name": "",
          "type": "uint256"
        }
      ],
      "stateMutability": "view",
      "type": "function",
      "constant": true
    },
    {
      "inputs": [
        {
          "internalType": "address",
          "name": "from",
          "type": "address"
        },
        {
          "internalType": "address",
          "name": "to",
          "type": "address"
        },
        {
          "internalType": "uint256",
          "name": "tokenId",
          "type": "uint256"
        }
      ],
      "name": "transferFrom",
      "outputs": [],
      "stateMutability": "nonpayable",
      "type": "function"
    },
    {
      "inputs": [
        {
          "internalType": "address",
          "name": "newOwner",
          "type": "address"
        }
      ],
      "name": "transferOwnership",
      "outputs": [],
      "stateMutability": "nonpayable",
      "type": "function"
    },
    {
      "inputs": [],
      "name": "totalMinted",
      "outputs": [
        {
          "internalType": "uint256",
          "name": "",
          "type": "uint256"
        }
      ],
      "stateMutability": "view",
      "type": "function",
      "constant": true
    },
    {
      "inputs": [],
      "name": "totalBurned",
      "outputs": [
        {
          "internalType": "uint256",
          "name": "",
          "type": "uint256"
        }
      ],
      "stateMutability": "view",
      "type": "function",
      "constant": true
    },
    {
      "inputs": [
        {
          "internalType": "address",
          "name": "owner",
          "type": "address"
        }
      ],
      "name": "numberMinted",
      "outputs": [
        {
          "internalType": "uint256",
          "name": "",
          "type": "uint256"
        }
      ],
      "stateMutability": "view",
      "type": "function",
      "constant": true
    },
    {
      "inputs": [
        {
          "internalType": "uint256",
          "name": "_amount",
          "type": "uint256"
        },
        {
          "internalType": "bytes",
          "name": "_signature",
          "type": "bytes"
        }
      ],
      "name": "mint",
      "outputs": [],
      "stateMutability": "payable",
      "type": "function",
      "payable": true
    },
    {
      "inputs": [
        {
          "internalType": "uint256",
          "name": "_amount",
          "type": "uint256"
        },
        {
          "internalType": "bytes",
          "name": "_signature",
          "type": "bytes"
        }
      ],
      "name": "presaleMint",
      "outputs": [],
      "stateMutability": "payable",
      "type": "function",
      "payable": true
    },
    {
      "inputs": [
        {
          "internalType": "string",
          "name": "_baseTokenURI",
          "type": "string"
        }
      ],
      "name": "setBaseURI",
      "outputs": [],
      "stateMutability": "nonpayable",
      "type": "function"
    },
    {
      "inputs": [
        {
          "internalType": "uint256",
          "name": "_newPrice",
          "type": "uint256"
        }
      ],
      "name": "setPrice",
      "outputs": [],
      "stateMutability": "nonpayable",
      "type": "function"
    },
    {
      "inputs": [
        {
          "internalType": "uint256",
          "name": "_newPrice",
          "type": "uint256"
        }
      ],
      "name": "setPresalePrice",
      "outputs": [],
      "stateMutability": "nonpayable",
      "type": "function"
    },
    {
      "inputs": [
        {
          "internalType": "uint256",
          "name": "_count",
          "type": "uint256"
        }
      ],
      "name": "setMaxTotalSupply",
      "outputs": [],
      "stateMutability": "nonpayable",
      "type": "function"
    },
    {
      "inputs": [],
      "name": "withdraw",
      "outputs": [],
      "stateMutability": "nonpayable",
      "type": "function"
    },
    {
      "inputs": [],
      "name": "pause",
      "outputs": [],
      "stateMutability": "nonpayable",
      "type": "function"
    },
    {
      "inputs": [],
      "name": "unpause",
      "outputs": [],
      "stateMutability": "nonpayable",
      "type": "function"
    },
    {
      "inputs": [],
      "name": "presale",
      "outputs": [],
      "stateMutability": "nonpayable",
      "type": "function"
    },
    {
      "inputs": [],
      "name": "unpresale",
      "outputs": [],
      "stateMutability": "nonpayable",
      "type": "function"
    },
    {
      "inputs": [],
      "name": "allowPublic",
      "outputs": [],
      "stateMutability": "nonpayable",
      "type": "function"
    },
    {
      "inputs": [],
      "name": "disallowPublic",
      "outputs": [],
      "stateMutability": "nonpayable",
      "type": "function"
    }
  ],
  "bytecode": "0x6080604052662386f26fc10000600b819055600c55610d05600d55600e80546001600160a01b031990811673402351069cff2f0324a147ec0a138a1c2149159117909155600f80549091167366b60143fe3388551a4749acd5c07bbd368874ad1790553480156200006f57600080fd5b506040516200339238038062003392833981016040819052620000929162000377565b604080518082018252600680825265436173696e6f60d01b602080840182815285518087019096529285528401528151919291620000d391600291620002bb565b508051620000e9906003906020840190620002bb565b5050600160005550620000fc336200012a565b6008805460ff60a01b19169055600160095562000119816200017c565b620001236200019f565b5062000490565b600880546001600160a01b038381166001600160a01b0319831681179093556040519116919082907f8be0079c531659141344cd1fd0a4f28419497f9722a3daafe3b4186f6b6457e090600090a35050565b62000186620001b5565b80516200019b90600a906020840190620002bb565b5050565b620001a9620001b5565b620001b362000215565b565b6008546001600160a01b03163314620001b35760405162461bcd60e51b815260206004820181905260248201527f4f776e61626c653a2063616c6c6572206973206e6f7420746865206f776e657260448201526064015b60405180910390fd5b600854600160a81b900460ff1615620002625760405162461bcd60e51b815260206004820152600e60248201526d141c995cd85b194818db1bdcd95960921b60448201526064016200020c565b6008805460ff60a81b1916600160a81b1790557fb1412a7cd96bc4195d633c938189c320dcbeb2cff60c1b8bdd872678fb3514b46200029e3390565b6040516001600160a01b03909116815260200160405180910390a1565b828054620002c99062000453565b90600052602060002090601f016020900481019282620002ed576000855562000338565b82601f106200030857805160ff191683800117855562000338565b8280016001018555821562000338579182015b82811115620003385782518255916020019190600101906200031b565b50620003469291506200034a565b5090565b5b808211156200034657600081556001016200034b565b634e487b7160e01b600052604160045260246000fd5b600060208083850312156200038b57600080fd5b82516001600160401b0380821115620003a357600080fd5b818501915085601f830112620003b857600080fd5b815181811115620003cd57620003cd62000361565b604051601f8201601f19908116603f01168101908382118183101715620003f857620003f862000361565b8160405282815288868487010111156200041157600080fd5b600093505b8284101562000435578484018601518185018701529285019262000416565b82841115620004475760008684830101525b98975050505050505050565b600181811c908216806200046857607f821691505b602082108114156200048a57634e487b7160e01b600052602260045260246000fd5b50919050565b612ef280620004a06000396000f3fe6080604052600436106102e65760003560e01c80638462151c11610184578063c7a9fb92116100d6578063db7fd4081161008a578063f2fde38b11610064578063f2fde38b146107f2578063fd24a85414610812578063fdea8e0b1461082557600080fd5b8063db7fd40814610776578063dc33e68114610789578063e985e9c5146107a957600080fd5b8063d0f9cd93116100bb578063d0f9cd9314610737578063d547cfb71461074c578063d89135cd1461076157600080fd5b8063c7a9fb9214610702578063c87b56dd1461071757600080fd5b806399a2557a11610138578063a2309ff811610112578063a2309ff81461069c578063b88d4fde146106b5578063c23dc68f146106d557600080fd5b806399a2557a14610646578063a035b1fe14610666578063a22cb4651461067c57600080fd5b80638da5cb5b116101695780638da5cb5b146105f357806391b7f5ed1461061157806395d89b411461063157600080fd5b80638462151c146105b157806385493853146105de57600080fd5b80633f3e4c111161023d5780635bbb2177116101f157806370a08231116101cb57806370a0823114610567578063715018a6146105875780638456cb591461059c57600080fd5b80635bbb2177146104fb5780635c975abb146105285780636352211e1461054757600080fd5b806342842e0e1161022257806342842e0e1461049c5780634cb2f9ea146104bc57806355f804b3146104db57600080fd5b80633f3e4c11146104675780633f4ba83a1461048757600080fd5b806309c214df1161029f5780632ab4d052116102795780632ab4d0521461041c5780633549345e146104325780633ccfd60b1461045257600080fd5b806309c214df146103c057806318160ddd146103df57806323b872dd146103fc57600080fd5b806306fdde03116102d057806306fdde0314610344578063081812fc14610366578063095ea7b31461039e57600080fd5b80620e7fa8146102eb57806301ffc9a714610314575b600080fd5b3480156102f757600080fd5b50610301600c5481565b6040519081526020015b60405180910390f35b34801561032057600080fd5b5061033461032f366004612854565b61083a565b604051901515815260200161030b565b34801561035057600080fd5b506103596108d7565b60405161030b91906128c9565b34801561037257600080fd5b506103866103813660046128dc565b610969565b6040516001600160a01b03909116815260200161030b565b3480156103aa57600080fd5b506103be6103b9366004612911565b6109c6565b005b3480156103cc57600080fd5b50600854600160b01b900460ff16610334565b3480156103eb57600080fd5b506001546000540360001901610301565b34801561040857600080fd5b506103be61041736600461293b565b610a97565b34801561042857600080fd5b50610301600d5481565b34801561043e57600080fd5b506103be61044d3660046128dc565b610c74565b34801561045e57600080fd5b506103be610c81565b34801561047357600080fd5b506103be6104823660046128dc565b610d72565b34801561049357600080fd5b506103be610d7f565b3480156104a857600080fd5b506103be6104b736600461293b565b610d91565b3480156104c857600080fd5b50600854600160a81b900460ff16610334565b3480156104e757600080fd5b506103be6104f6366004612a03565b610db1565b34801561050757600080fd5b5061051b610516366004612a4c565b610dd0565b60405161030b9190612ac1565b34801561053457600080fd5b50600854600160a01b900460ff16610334565b34801561055357600080fd5b506103866105623660046128dc565b610e9c565b34801561057357600080fd5b50610301610582366004612b3e565b610ea7565b34801561059357600080fd5b506103be610f0f565b3480156105a857600080fd5b506103be610f21565b3480156105bd57600080fd5b506105d16105cc366004612b3e565b610f31565b60405161030b9190612b59565b3480156105ea57600080fd5b506103be61103c565b3480156105ff57600080fd5b506008546001600160a01b0316610386565b34801561061d57600080fd5b506103be61062c3660046128dc565b61104c565b34801561063d57600080fd5b50610359611059565b34801561065257600080fd5b506105d1610661366004612b91565b611068565b34801561067257600080fd5b50610301600b5481565b34801561068857600080fd5b506103be610697366004612bc4565b61120d565b3480156106a857600080fd5b5060005460001901610301565b3480156106c157600080fd5b506103be6106d0366004612c20565b6112c1565b3480156106e157600080fd5b506106f56106f03660046128dc565b61130b565b60405161030b9190612c88565b34801561070e57600080fd5b506103be611393565b34801561072357600080fd5b506103596107323660046128dc565b6113ce565b34801561074357600080fd5b506103be61146b565b34801561075857600080fd5b506103596114a0565b34801561076d57600080fd5b5061030161152e565b6103be610784366004612ccd565b611539565b34801561079557600080fd5b506103016107a4366004612b3e565b6117d7565b3480156107b557600080fd5b506103346107c4366004612d14565b6001600160a01b03918216600090815260076020908152604080832093909416825291909152205460ff1690565b3480156107fe57600080fd5b506103be61080d366004612b3e565b611802565b6103be610820366004612ccd565b611892565b34801561083157600080fd5b506103be611b07565b60007f01ffc9a7000000000000000000000000000000000000000000000000000000006001600160e01b03198316148061089d57507f80ac58cd000000000000000000000000000000000000000000000000000000006001600160e01b03198316145b806108d157507f5b5e139f000000000000000000000000000000000000000000000000000000006001600160e01b03198316145b92915050565b6060600280546108e690612d47565b80601f016020809104026020016040519081016040528092919081815260200182805461091290612d47565b801561095f5780601f106109345761010080835404028352916020019161095f565b820191906000526020600020905b81548152906001019060200180831161094257829003601f168201915b5050505050905090565b600061097482611b17565b6109aa576040517fcf4700e400000000000000000000000000000000000000000000000000000000815260040160405180910390fd5b506000908152600660205260409020546001600160a01b031690565b60006109d182610e9c565b9050336001600160a01b03821614610a23576109ed81336107c4565b610a23576040517fcfb3b94200000000000000000000000000000000000000000000000000000000815260040160405180910390fd5b60008281526006602052604080822080547fffffffffffffffffffffffff0000000000000000000000000000000000000000166001600160a01b0387811691821790925591518593918516917f8c5be1e5ebec7d5bd14f71427d1e84f3dd0314c0f7b2291e5b200ac8c7c3b92591a4505050565b6000610aa282611b4c565b9050836001600160a01b0316816001600160a01b031614610aef576040517fa114810000000000000000000000000000000000000000000000000000000000815260040160405180910390fd5b60008281526006602052604090208054338082146001600160a01b03881690911417610b5557610b1f86336107c4565b610b55576040517f59c896be00000000000000000000000000000000000000000000000000000000815260040160405180910390fd5b6001600160a01b038516610b95576040517fea553b3400000000000000000000000000000000000000000000000000000000815260040160405180910390fd5b8015610ba057600082555b6001600160a01b038681166000908152600560205260408082208054600019019055918716808252919020805460010190554260a01b17600160e11b17600085815260046020526040902055600160e11b8316610c2b5760018401600081815260046020526040902054610c29576000548114610c295760008181526004602052604090208490555b505b83856001600160a01b0316876001600160a01b03167fddf252ad1be2c89b69c2b068fc378daa952ba7f163c4a11628f55a4df523b3ef60405160405180910390a4505050505050565b610c7c611bce565b600c55565b610c89611bce565b60026009541415610ce15760405162461bcd60e51b815260206004820152601f60248201527f5265656e7472616e637947756172643a207265656e7472616e742063616c6c0060448201526064015b60405180910390fd5b60026009556000610cf3606447612d98565b600e549091506001600160a01b03166108fc610d1083600c612dba565b6040518115909202916000818181858888f19350505050610d3057600080fd5b600f546001600160a01b03166108fc610d4a836058612dba565b6040518115909202916000818181858888f19350505050610d6a57600080fd5b506001600955565b610d7a611bce565b600d55565b610d87611bce565b610d8f611c28565b565b610dac838383604051806020016040528060008152506112c1565b505050565b610db9611bce565b8051610dcc90600a9060208401906127a5565b5050565b60608160008167ffffffffffffffff811115610dee57610dee612977565b604051908082528060200260200182016040528015610e4057816020015b604080516080810182526000808252602080830182905292820181905260608201528252600019909201910181610e0c5790505b50905060005b828114610e9357610e6e868683818110610e6257610e62612dd9565b9050602002013561130b565b828281518110610e8057610e80612dd9565b6020908102919091010152600101610e46565b50949350505050565b60006108d182611b4c565b60006001600160a01b038216610ee9576040517f8f4eb60400000000000000000000000000000000000000000000000000000000815260040160405180910390fd5b506001600160a01b031660009081526005602052604090205467ffffffffffffffff1690565b610f17611bce565b610d8f6000611c98565b610f29611bce565b610d8f611d02565b60606000806000610f4185610ea7565b905060008167ffffffffffffffff811115610f5e57610f5e612977565b604051908082528060200260200182016040528015610f87578160200160208202803683370190505b5060408051608081018252600080825260208201819052918101829052606081019190915290915060015b83861461103057610fc281611d60565b9150816040015115610fd357611028565b81516001600160a01b031615610fe857815194505b876001600160a01b0316856001600160a01b03161415611028578083878060010198508151811061101b5761101b612dd9565b6020026020010181815250505b600101610fb2565b50909695505050505050565b611044611bce565b610d8f611ddf565b611054611bce565b600b55565b6060600380546108e690612d47565b60608183106110a3576040517f32c1995a00000000000000000000000000000000000000000000000000000000815260040160405180910390fd5b6000806110af60005490565b905060018510156110bf57600194505b808411156110cb578093505b60006110d687610ea7565b9050848610156110f557858503818110156110ef578091505b506110f9565b5060005b60008167ffffffffffffffff81111561111457611114612977565b60405190808252806020026020018201604052801561113d578160200160208202803683370190505b5090508161115057935061120692505050565b600061115b8861130b565b90506000816040015161116c575080515b885b88811415801561117e5750848714155b156111fa5761118c81611d60565b925082604001511561119d576111f2565b82516001600160a01b0316156111b257825191505b8a6001600160a01b0316826001600160a01b031614156111f257808488806001019950815181106111e5576111e5612dd9565b6020026020010181815250505b60010161116e565b50505092835250909150505b9392505050565b6001600160a01b038216331415611250576040517fb06307db00000000000000000000000000000000000000000000000000000000815260040160405180910390fd5b3360008181526007602090815260408083206001600160a01b03871680855290835292819020805460ff191686151590811790915590519081529192917f17307eab39ab6107e8899845ad3d59bd9653f200f220920489ca2b5937696c31910160405180910390a35050565b905090565b6112cc848484610a97565b6001600160a01b0383163b15611305576112e884848484611e75565b611305576040516368d2bf6b60e11b815260040160405180910390fd5b50505050565b604080516080810182526000808252602082018190529181018290526060810191909152604080516080810182526000808252602082018190529181018290526060810191909152600183108061136457506000548310155b1561136f5792915050565b61137883611d60565b905080604001511561138a5792915050565b61120683611f6d565b61139b611bce565b610d8f600880547fffffffffffffffffff00ffffffffffffffffffffffffffffffffffffffffffff16600160b01b179055565b60606113d982611b17565b61140f576040517fa14c4b5000000000000000000000000000000000000000000000000000000000815260040160405180910390fd5b6000611419611fe5565b905080516000141561143a5760405180602001604052806000815250611206565b8061144484611ff4565b604051602001611455929190612def565b6040516020818303038152906040529392505050565b611473611bce565b610d8f600880547fffffffffffffffffff00ffffffffffffffffffffffffffffffffffffffffffff169055565b600a80546114ad90612d47565b80601f01602080910402602001604051908101604052809291908181526020018280546114d990612d47565b80156115265780601f106114fb57610100808354040283529160200191611526565b820191906000526020600020905b81548152906001019060200180831161150957829003601f168201915b505050505081565b60006112bc60015490565b600854600160b01b900460ff166115805760405162461bcd60e51b815260206004820152600b60248201526a14d85b194818db1bdcd95960aa1b6044820152606401610cd8565b611588612043565b6000611594338361209d565b90506115a86008546001600160a01b031690565b6001600160a01b0316816001600160a01b0316146116085760405162461bcd60e51b815260206004820152601660248201527f4e6f7420617574686f72697a656420746f206d696e74000000000000000000006044820152606401610cd8565b3360009081526005602052604090819020546003916116339186911c67ffffffffffffffff16612e1e565b111561168b5760405162461bcd60e51b815260206004820152602160248201527f43616e206f6e6c79206d696e74203320746f6b656e73206174206164647265736044820152607360f81b6064820152608401610cd8565b600d548361169c6000546000190190565b6116a69190612e1e565b11156116f45760405162461bcd60e51b815260206004820152601660248201527f45786365656473206d6178696d756d20737570706c79000000000000000000006044820152606401610cd8565b336000908152600560205260408082205467ffffffffffffffff911c166002146117605761175b60018561174b336001600160a01b03166000908152600560205260409081902054901c67ffffffffffffffff1690565b6117559190612e1e565b9061213a565b611764565b6001805b915050801580611781575080600b5461177d9190612dba565b3410155b6117cd5760405162461bcd60e51b815260206004820152601f60248201527f45746865722076616c75652073656e74206973206e6f7420636f7272656374006044820152606401610cd8565b6113053385612160565b6001600160a01b0381166000908152600560205260408082205467ffffffffffffffff911c166108d1565b61180a611bce565b6001600160a01b0381166118865760405162461bcd60e51b815260206004820152602660248201527f4f776e61626c653a206e6577206f776e657220697320746865207a65726f206160448201527f64647265737300000000000000000000000000000000000000000000000000006064820152608401610cd8565b61188f81611c98565b50565b600854600160a81b900460ff166118d95760405162461bcd60e51b815260206004820152600b60248201526a14d85b194818db1bdcd95960aa1b6044820152606401610cd8565b6118e1612043565b60006118ed338361209d565b90506119016008546001600160a01b031690565b6001600160a01b0316816001600160a01b0316146119615760405162461bcd60e51b815260206004820152601660248201527f4e6f7420617574686f72697a656420746f206d696e74000000000000000000006044820152606401610cd8565b33600090815260056020526040908190205460069161198c9186911c67ffffffffffffffff16612e1e565b11156119e45760405162461bcd60e51b815260206004820152602160248201527f43616e206f6e6c79206d696e74203620746f6b656e73206174206164647265736044820152607360f81b6064820152608401610cd8565b600d54836119f56000546000190190565b6119ff9190612e1e565b1115611a4d5760405162461bcd60e51b815260206004820152601660248201527f45786365656473206d6178696d756d20737570706c79000000000000000000006044820152606401610cd8565b336000908152600560205260408082205467ffffffffffffffff911c16158015611a775750600184115b15611a8e57611a87600285612e36565b9050611af1565b3360009081526005602052604090819020546002911c67ffffffffffffffff16108015611abb5750836001145b15611ac857506000611af1565b3360009081526005602052604090819020546001911c67ffffffffffffffff161115611af15750825b801580611781575080600c5461177d9190612dba565b611b0f611bce565b610d8f61217a565b600081600111158015611b2b575060005482105b80156108d1575050600090815260046020526040902054600160e01b161590565b60008180600111611b9c57600054811015611b9c57600081815260046020526040902054600160e01b8116611b9a575b80611206575060001901600081815260046020526040902054611b7c565b505b6040517fdf2d9b4200000000000000000000000000000000000000000000000000000000815260040160405180910390fd5b6008546001600160a01b03163314610d8f5760405162461bcd60e51b815260206004820181905260248201527f4f776e61626c653a2063616c6c6572206973206e6f7420746865206f776e65726044820152606401610cd8565b611c3061222a565b600880547fffffffffffffffffffffff00ffffffffffffffffffffffffffffffffffffffff1690557f5db9ee0a495bf2e6ff9c91a7834c1ba4fdd244a5e8aa4e537bd38aeae4b073aa335b6040516001600160a01b03909116815260200160405180910390a1565b600880546001600160a01b038381167fffffffffffffffffffffffff0000000000000000000000000000000000000000831681179093556040519116919082907f8be0079c531659141344cd1fd0a4f28419497f9722a3daafe3b4186f6b6457e090600090a35050565b611d0a612043565b600880547fffffffffffffffffffffff00ffffffffffffffffffffffffffffffffffffffff16600160a01b1790557f62e78cea01bee320cd4e420270b5ea74000d11b0c9f74754ebdbfc544b05a258611c7b3390565b6040805160808101825260008082526020820181905291810182905260608101919091526000828152600460205260409020546108d190604080516080810182526001600160a01b038316815260a083901c67ffffffffffffffff166020820152600160e01b831615159181019190915260e89190911c606082015290565b600854600160a81b900460ff16611e265760405162461bcd60e51b815260206004820152600b60248201526a14d85b194818db1bdcd95960aa1b6044820152606401610cd8565b600880547fffffffffffffffffffff00ffffffffffffffffffffffffffffffffffffffffff1690557f9e209206b95275a497262e47a30901f0716b2d6d19618dd5e9b7b68237e7cb7133611c7b565b604051630a85bd0160e11b81526000906001600160a01b0385169063150b7a0290611eaa903390899088908890600401612e4d565b602060405180830381600087803b158015611ec457600080fd5b505af1925050508015611ef4575060408051601f3d908101601f19168201909252611ef191810190612e89565b60015b611f4f573d808015611f22576040519150601f19603f3d011682016040523d82523d6000602084013e611f27565b606091505b508051611f47576040516368d2bf6b60e11b815260040160405180910390fd5b805181602001fd5b6001600160e01b031916630a85bd0160e11b1490505b949350505050565b6040805160808101825260008082526020820181905291810182905260608101919091526108d1611f9d83611b4c565b604080516080810182526001600160a01b038316815260a083901c67ffffffffffffffff166020820152600160e01b831615159181019190915260e89190911c606082015290565b6060600a80546108e690612d47565b604080516080810191829052607f0190826030600a8206018353600a90045b801561203157600183039250600a81066030018353600a9004612013565b50819003601f19909101908152919050565b600854600160a01b900460ff1615610d8f5760405162461bcd60e51b815260206004820152601060248201527f5061757361626c653a20706175736564000000000000000000000000000000006044820152606401610cd8565b60408051606084901b7fffffffffffffffffffffffffffffffffffffffff00000000000000000000000016602080830191909152825160148184030181526034830184528051908201207f19457468657265756d205369676e6564204d6573736167653a0a333200000000605484015260708084019190915283518084039091018152609090920190925280519101206000906112069083612283565b6000808383111561215057506000905080612159565b50600190508183035b9250929050565b610dcc8282604051806020016040528060008152506122a7565b600854600160a81b900460ff16156121d45760405162461bcd60e51b815260206004820152600e60248201527f50726573616c6520636c6f7365640000000000000000000000000000000000006044820152606401610cd8565b600880547fffffffffffffffffffff00ffffffffffffffffffffffffffffffffffffffffff16600160a81b1790557fb1412a7cd96bc4195d633c938189c320dcbeb2cff60c1b8bdd872678fb3514b4611c7b3390565b600854600160a01b900460ff16610d8f5760405162461bcd60e51b815260206004820152601460248201527f5061757361626c653a206e6f74207061757365640000000000000000000000006044820152606401610cd8565b60008060006122928585612314565b9150915061229f81612381565b509392505050565b6122b1838361253c565b6001600160a01b0383163b15610dac576000548281035b6122db6000868380600101945086611e75565b6122f8576040516368d2bf6b60e11b815260040160405180910390fd5b8181106122c857816000541461230d57600080fd5b5050505050565b60008082516041141561234b5760208301516040840151606085015160001a61233f87828585612666565b94509450505050612159565b825160401415612375576020830151604084015161236a868383612753565b935093505050612159565b50600090506002612159565b600081600481111561239557612395612ea6565b141561239e5750565b60018160048111156123b2576123b2612ea6565b14156124005760405162461bcd60e51b815260206004820152601860248201527f45434453413a20696e76616c6964207369676e617475726500000000000000006044820152606401610cd8565b600281600481111561241457612414612ea6565b14156124625760405162461bcd60e51b815260206004820152601f60248201527f45434453413a20696e76616c6964207369676e6174757265206c656e677468006044820152606401610cd8565b600381600481111561247657612476612ea6565b14156124cf5760405162461bcd60e51b815260206004820152602260248201527f45434453413a20696e76616c6964207369676e6174757265202773272076616c604482015261756560f01b6064820152608401610cd8565b60048160048111156124e3576124e3612ea6565b141561188f5760405162461bcd60e51b815260206004820152602260248201527f45434453413a20696e76616c6964207369676e6174757265202776272076616c604482015261756560f01b6064820152608401610cd8565b60005481612576576040517fb562e8dd00000000000000000000000000000000000000000000000000000000815260040160405180910390fd5b6001600160a01b03831660008181526005602090815260408083208054680100000000000000018802019055848352600490915281206001851460e11b4260a01b178317905582840190839083907fddf252ad1be2c89b69c2b068fc378daa952ba7f163c4a11628f55a4df523b3ef8180a4600183015b81811461262557808360007fddf252ad1be2c89b69c2b068fc378daa952ba7f163c4a11628f55a4df523b3ef600080a46001016125ed565b508161265d576040517f2e07630000000000000000000000000000000000000000000000000000000000815260040160405180910390fd5b60005550505050565b6000807f7fffffffffffffffffffffffffffffff5d576e7357a4501ddfe92f46681b20a083111561269d575060009050600361274a565b8460ff16601b141580156126b557508460ff16601c14155b156126c6575060009050600461274a565b6040805160008082526020820180845289905260ff881692820192909252606081018690526080810185905260019060a0016020604051602081039080840390855afa15801561271a573d6000803e3d6000fd5b5050604051601f1901519150506001600160a01b0381166127435760006001925092505061274a565b9150600090505b94509492505050565b6000807f7fffffffffffffffffffffffffffffffffffffffffffffffffffffffffffffff83168161278960ff86901c601b612e1e565b905061279787828885612666565b935093505050935093915050565b8280546127b190612d47565b90600052602060002090601f0160209004810192826127d35760008555612819565b82601f106127ec57805160ff1916838001178555612819565b82800160010185558215612819579182015b828111156128195782518255916020019190600101906127fe565b50612825929150612829565b5090565b5b80821115612825576000815560010161282a565b6001600160e01b03198116811461188f57600080fd5b60006020828403121561286657600080fd5b81356112068161283e565b60005b8381101561288c578181015183820152602001612874565b838111156113055750506000910152565b600081518084526128b5816020860160208601612871565b601f01601f19169290920160200192915050565b602081526000611206602083018461289d565b6000602082840312156128ee57600080fd5b5035919050565b80356001600160a01b038116811461290c57600080fd5b919050565b6000806040838503121561292457600080fd5b61292d836128f5565b946020939093013593505050565b60008060006060848603121561295057600080fd5b612959846128f5565b9250612967602085016128f5565b9150604084013590509250925092565b634e487b7160e01b600052604160045260246000fd5b600067ffffffffffffffff808411156129a8576129a8612977565b604051601f8501601f19908116603f011681019082821181831017156129d0576129d0612977565b816040528093508581528686860111156129e957600080fd5b858560208301376000602087830101525050509392505050565b600060208284031215612a1557600080fd5b813567ffffffffffffffff811115612a2c57600080fd5b8201601f81018413612a3d57600080fd5b611f658482356020840161298d565b60008060208385031215612a5f57600080fd5b823567ffffffffffffffff80821115612a7757600080fd5b818501915085601f830112612a8b57600080fd5b813581811115612a9a57600080fd5b8660208260051b8501011115612aaf57600080fd5b60209290920196919550909350505050565b6020808252825182820181905260009190848201906040850190845b8181101561103057612b2b8385516001600160a01b03815116825267ffffffffffffffff602082015116602083015260408101511515604083015262ffffff60608201511660608301525050565b9284019260809290920191600101612add565b600060208284031215612b5057600080fd5b611206826128f5565b6020808252825182820181905260009190848201906040850190845b8181101561103057835183529284019291840191600101612b75565b600080600060608486031215612ba657600080fd5b612baf846128f5565b95602085013595506040909401359392505050565b60008060408385031215612bd757600080fd5b612be0836128f5565b915060208301358015158114612bf557600080fd5b809150509250929050565b600082601f830112612c1157600080fd5b6112068383356020850161298d565b60008060008060808587031215612c3657600080fd5b612c3f856128f5565b9350612c4d602086016128f5565b925060408501359150606085013567ffffffffffffffff811115612c7057600080fd5b612c7c87828801612c00565b91505092959194509250565b81516001600160a01b0316815260208083015167ffffffffffffffff169082015260408083015115159082015260608083015162ffffff1690820152608081016108d1565b60008060408385031215612ce057600080fd5b82359150602083013567ffffffffffffffff811115612cfe57600080fd5b612d0a85828601612c00565b9150509250929050565b60008060408385031215612d2757600080fd5b612d30836128f5565b9150612d3e602084016128f5565b90509250929050565b600181811c90821680612d5b57607f821691505b60208210811415612d7c57634e487b7160e01b600052602260045260246000fd5b50919050565b634e487b7160e01b600052601160045260246000fd5b600082612db557634e487b7160e01b600052601260045260246000fd5b500490565b6000816000190483118215151615612dd457612dd4612d82565b500290565b634e487b7160e01b600052603260045260246000fd5b60008351612e01818460208801612871565b835190830190612e15818360208801612871565b01949350505050565b60008219821115612e3157612e31612d82565b500190565b600082821015612e4857612e48612d82565b500390565b60006001600160a01b03808716835280861660208401525083604083015260806060830152612e7f608083018461289d565b9695505050505050565b600060208284031215612e9b57600080fd5b81516112068161283e565b634e487b7160e01b600052602160045260246000fdfea2646970667358221220e087a34f91126ab85a27bbe9dc118f7008f53ab1af49591f63168ffc5a98cff564736f6c63430008090033",
  "immutableReferences": {},
  "source": "// SPDX-License-Identifier: MIT\npragma solidity ^0.8.9;\n\nimport \"erc721a/contracts/extensions/ERC721AQueryable.sol\";\nimport \"@openzeppelin/contracts/access/Ownable.sol\";\nimport \"@openzeppelin/contracts/security/Pausable.sol\";\nimport \"@openzeppelin/contracts/utils/math/SafeMath.sol\";\nimport \"@openzeppelin/contracts/utils/cryptography/ECDSA.sol\";\nimport \"@openzeppelin/contracts/security/ReentrancyGuard.sol\";\n\nimport \"./Presalable.sol\";\n\ncontract BackDoorCasino is ERC721AQueryable, Ownable, Pausable, Presalable, ReentrancyGuard {\n  using SafeMath for uint;\n  using ECDSA for bytes32;\n\n  string public baseTokenURI;\n\n  uint256 public price = 0.01 ether;\n  uint256 public presalePrice = 0.01 ether;\n  uint256 public maxTotalSupply = 3333;\n\n  address t1 = 0x402351069CFF2F0324A147eC0a138a1C21491591;\n  address t2 = 0x66B60143Fe3388551a4749aCD5C07Bbd368874ad;\n\n  constructor(string memory _baseTokenURI) ERC721A(\"Casino\", \"Casino\")  {\n    setBaseURI(_baseTokenURI);\n    presale();\n  }\n\n  function totalMinted() public view returns (uint256) {\n    return _totalMinted();\n  }\n\n  function totalBurned() public view returns (uint256) {\n    return _totalBurned();\n  }\n\n  function numberMinted(address owner) public view returns (uint256) {\n    return _numberMinted(owner);\n  }\n\n  function mint(uint256 _amount, bytes memory _signature) public payable whenAllowedPublic whenNotPaused {\n    address signer = _recoverSigner(msg.sender, _signature);\n    \n    require(signer == owner(), \"Not authorized to mint\");\n    require(_numberMinted(msg.sender) + _amount <= 3, \"Can only mint 3 tokens at address\");\n    require(_totalMinted() + _amount <= maxTotalSupply, \"Exceeds maximum supply\");\n\n    (, uint256 _nonFreeAmount) = _numberMinted(msg.sender) == 2 \n                                 ? (true, 1) : (_numberMinted(msg.sender) + _amount).trySub(1);\n\n    require(_nonFreeAmount == 0 || msg.value >= price * _nonFreeAmount, \"Ether value sent is not correct\");\n\n    _safeMint(msg.sender, _amount);\n  }\n\n  function presaleMint(uint256 _amount, bytes memory _signature) public payable whenPresaled whenNotPaused {        \n    address signer = _recoverSigner(msg.sender, _signature);\n\n    require(signer == owner(), \"Not authorized to mint\");\n    require(_numberMinted(msg.sender) + _amount <= 6, \"Can only mint 6 tokens at address\");\n    require(_totalMinted() + _amount <= maxTotalSupply, \"Exceeds maximum supply\");\n\n    uint256 _nonFreeAmount;\n\n    if(_numberMinted(msg.sender) == 0 && _amount > 1) {\n      _nonFreeAmount = _amount - 2;\n    } else if(_numberMinted(msg.sender) < 2 && _amount == 1) {\n      _nonFreeAmount = 0;\n    } else if(_numberMinted(msg.sender) > 1) {\n      _nonFreeAmount = _amount;\n    }\n\n    require(_nonFreeAmount == 0 || msg.value >= presalePrice * _nonFreeAmount, \"Ether value sent is not correct\");\n  \n    _safeMint(msg.sender, _amount);\n  }\n\n  function _baseURI() internal view virtual override returns (string memory) {\n    return baseTokenURI;\n  }\n\n  function setBaseURI(string memory _baseTokenURI) public onlyOwner {\n    baseTokenURI = _baseTokenURI;\n  }\n\n  function setPrice(uint256 _newPrice) public onlyOwner{\n    price = _newPrice;\n  }\n\n  function setPresalePrice(uint256 _newPrice) public onlyOwner{\n    presalePrice = _newPrice;\n  }\n\n  function setMaxTotalSupply(uint256 _count) public onlyOwner{\n    maxTotalSupply = _count;\n  }\n\n  function withdraw() external onlyOwner nonReentrant {\n    uint256 _balance = address(this).balance / 100;\n\n    require(payable(t1).send(_balance * 12));\n    require(payable(t2).send(_balance * 88));\n  }\n\n  function pause() public onlyOwner {\n    _pause();\n  }\n\n  function unpause() public onlyOwner {\n    _unpause();\n  }\n\n  function presale() public onlyOwner {\n    _presale();\n  }\n\n  function unpresale() public onlyOwner {\n    _unpresale();\n  }\n\n  function allowPublic() public onlyOwner {\n    _allowPublic();\n  }\n\n  function disallowPublic() public onlyOwner {\n    _disallowPublic();\n  }\n\n  function _recoverSigner(address _wallet, bytes memory _signature) private pure returns (address){\n    return keccak256(abi.encodePacked(_wallet)).toEthSignedMessageHash().recover(_signature);\n  }\n\n  function _startTokenId() internal view virtual override returns (uint256) {\n    return 1;\n  }\n}",
  "sourcePath": "/Users/doss/Projects/nft-casino/packages/truffle/contracts/BackDoorCasino.sol",
  "compiler": {
    "name": "solc",
    "version": "0.8.9+commit.e5eed63a.Emscripten.clang"
  },
  "schemaVersion": "3.4.7",
  "updatedAt": "2022-08-26T15:51:32.482Z",
  "networkType": "ethereum",
  "devdoc": {
    "kind": "dev",
    "methods": {
      "approve(address,uint256)": {
        "details": "Gives permission to `to` to transfer `tokenId` token to another account. The approval is cleared when the token is transferred. Only a single account can be approved at a time, so approving the zero address clears previous approvals. Requirements: - The caller must own the token or be an approved operator. - `tokenId` must exist. Emits an {Approval} event."
      },
      "balanceOf(address)": {
        "details": "Returns the number of tokens in `owner`'s account."
      },
      "explicitOwnershipOf(uint256)": {
        "details": "Returns the `TokenOwnership` struct at `tokenId` without reverting. If the `tokenId` is out of bounds: - `addr = address(0)` - `startTimestamp = 0` - `burned = false` - `extraData = 0` If the `tokenId` is burned: - `addr = <Address of owner before token was burned>` - `startTimestamp = <Timestamp when token was burned>` - `burned = true` - `extraData = <Extra data when token was burned>` Otherwise: - `addr = <Address of owner>` - `startTimestamp = <Timestamp of start of ownership>` - `burned = false` - `extraData = <Extra data at start of ownership>`"
      },
      "explicitOwnershipsOf(uint256[])": {
        "details": "Returns an array of `TokenOwnership` structs at `tokenIds` in order. See {ERC721AQueryable-explicitOwnershipOf}"
      },
      "getApproved(uint256)": {
        "details": "Returns the account approved for `tokenId` token. Requirements: - `tokenId` must exist."
      },
      "isApprovedForAll(address,address)": {
        "details": "Returns if the `operator` is allowed to manage all of the assets of `owner`. See {setApprovalForAll}."
      },
      "name()": {
        "details": "Returns the token collection name."
      },
      "owner()": {
        "details": "Returns the address of the current owner."
      },
      "ownerOf(uint256)": {
        "details": "Returns the owner of the `tokenId` token. Requirements: - `tokenId` must exist."
      },
      "paused()": {
        "details": "Returns true if the contract is paused, and false otherwise."
      },
      "renounceOwnership()": {
        "details": "Leaves the contract without owner. It will not be possible to call `onlyOwner` functions anymore. Can only be called by the current owner. NOTE: Renouncing ownership will leave the contract without an owner, thereby removing any functionality that is only available to the owner."
      },
      "safeTransferFrom(address,address,uint256)": {
        "details": "Equivalent to `safeTransferFrom(from, to, tokenId, '')`."
      },
      "safeTransferFrom(address,address,uint256,bytes)": {
        "details": "Safely transfers `tokenId` token from `from` to `to`. Requirements: - `from` cannot be the zero address. - `to` cannot be the zero address. - `tokenId` token must exist and be owned by `from`. - If the caller is not `from`, it must be approved to move this token by either {approve} or {setApprovalForAll}. - If `to` refers to a smart contract, it must implement {IERC721Receiver-onERC721Received}, which is called upon a safe transfer. Emits a {Transfer} event."
      },
      "setApprovalForAll(address,bool)": {
        "details": "Approve or remove `operator` as an operator for the caller. Operators can call {transferFrom} or {safeTransferFrom} for any token owned by the caller. Requirements: - The `operator` cannot be the caller. Emits an {ApprovalForAll} event."
      },
      "supportsInterface(bytes4)": {
        "details": "Returns true if this contract implements the interface defined by `interfaceId`. See the corresponding [EIP section](https://eips.ethereum.org/EIPS/eip-165#how-interfaces-are-identified) to learn more about how these ids are created. This function call must use less than 30000 gas."
      },
      "symbol()": {
        "details": "Returns the token collection symbol."
      },
      "tokenURI(uint256)": {
        "details": "Returns the Uniform Resource Identifier (URI) for `tokenId` token."
      },
      "tokensOfOwner(address)": {
        "details": "Returns an array of token IDs owned by `owner`. This function scans the ownership mapping and is O(`totalSupply`) in complexity. It is meant to be called off-chain. See {ERC721AQueryable-tokensOfOwnerIn} for splitting the scan into multiple smaller scans if the collection is large enough to cause an out-of-gas error (10K collections should be fine)."
      },
      "tokensOfOwnerIn(address,uint256,uint256)": {
        "details": "Returns an array of token IDs owned by `owner`, in the range [`start`, `stop`) (i.e. `start <= tokenId < stop`). This function allows for tokens to be queried if the collection grows too big for a single call of {ERC721AQueryable-tokensOfOwner}. Requirements: - `start < stop`"
      },
      "totalSupply()": {
        "details": "Returns the total number of tokens in existence. Burned tokens will reduce the count. To get the total number of tokens minted, please see {_totalMinted}."
      },
      "transferFrom(address,address,uint256)": {
        "details": "Transfers `tokenId` from `from` to `to`. Requirements: - `from` cannot be the zero address. - `to` cannot be the zero address. - `tokenId` token must be owned by `from`. - If the caller is not `from`, it must be approved to move this token by either {approve} or {setApprovalForAll}. Emits a {Transfer} event."
      },
      "transferOwnership(address)": {
        "details": "Transfers ownership of the contract to a new account (`newOwner`). Can only be called by the current owner."
      }
    },
    "version": 1
  },
  "userdoc": {
    "errors": {
      "ApprovalCallerNotOwnerNorApproved()": [
        {
          "notice": "The caller must own the token or be an approved operator."
        }
      ],
      "ApprovalQueryForNonexistentToken()": [
        {
          "notice": "The token does not exist."
        }
      ],
      "ApproveToCaller()": [
        {
          "notice": "The caller cannot approve to their own address."
        }
      ],
      "BalanceQueryForZeroAddress()": [
        {
          "notice": "Cannot query the balance for the zero address."
        }
      ],
      "InvalidQueryRange()": [
        {
          "notice": "Invalid query range (`start` >= `stop`)."
        }
      ],
      "MintERC2309QuantityExceedsLimit()": [
        {
          "notice": "The `quantity` minted with ERC2309 exceeds the safety limit."
        }
      ],
      "MintToZeroAddress()": [
        {
          "notice": "Cannot mint to the zero address."
        }
      ],
      "MintZeroQuantity()": [
        {
          "notice": "The quantity of tokens minted must be more than zero."
        }
      ],
      "OwnerQueryForNonexistentToken()": [
        {
          "notice": "The token does not exist."
        }
      ],
      "OwnershipNotInitializedForExtraData()": [
        {
          "notice": "The `extraData` cannot be set on an unintialized ownership slot."
        }
      ],
      "TransferCallerNotOwnerNorApproved()": [
        {
          "notice": "The caller must own the token or be an approved operator."
        }
      ],
      "TransferFromIncorrectOwner()": [
        {
          "notice": "The token must be owned by `from`."
        }
      ],
      "TransferToNonERC721ReceiverImplementer()": [
        {
          "notice": "Cannot safely transfer to a contract that does not implement the ERC721Receiver interface."
        }
      ],
      "TransferToZeroAddress()": [
        {
          "notice": "Cannot transfer to the zero address."
        }
      ],
      "URIQueryForNonexistentToken()": [
        {
          "notice": "The token does not exist."
        }
      ]
    },
    "kind": "user",
    "methods": {},
    "version": 1
  }
}