{
  "contractName": "Casino",
  "abi": [
    {
      "inputs": [
        {
          "internalType": "string",
          "name": "_baseTokenURI",
          "type": "string"
        }
      ],
      "stateMutability": "nonpayable",
      "type": "constructor"
    },
    {
      "inputs": [],
      "name": "ApprovalCallerNotOwnerNorApproved",
      "type": "error"
    },
    {
      "inputs": [],
      "name": "ApprovalQueryForNonexistentToken",
      "type": "error"
    },
    {
      "inputs": [],
      "name": "ApproveToCaller",
      "type": "error"
    },
    {
      "inputs": [],
      "name": "BalanceQueryForZeroAddress",
      "type": "error"
    },
    {
      "inputs": [],
      "name": "InvalidQueryRange",
      "type": "error"
    },
    {
      "inputs": [],
      "name": "MintERC2309QuantityExceedsLimit",
      "type": "error"
    },
    {
      "inputs": [],
      "name": "MintToZeroAddress",
      "type": "error"
    },
    {
      "inputs": [],
      "name": "MintZeroQuantity",
      "type": "error"
    },
    {
      "inputs": [],
      "name": "OwnerQueryForNonexistentToken",
      "type": "error"
    },
    {
      "inputs": [],
      "name": "OwnershipNotInitializedForExtraData",
      "type": "error"
    },
    {
      "inputs": [],
      "name": "TransferCallerNotOwnerNorApproved",
      "type": "error"
    },
    {
      "inputs": [],
      "name": "TransferFromIncorrectOwner",
      "type": "error"
    },
    {
      "inputs": [],
      "name": "TransferToNonERC721ReceiverImplementer",
      "type": "error"
    },
    {
      "inputs": [],
      "name": "TransferToZeroAddress",
      "type": "error"
    },
    {
      "inputs": [],
      "name": "URIQueryForNonexistentToken",
      "type": "error"
    },
    {
      "anonymous": false,
      "inputs": [
        {
          "indexed": true,
          "internalType": "address",
          "name": "owner",
          "type": "address"
        },
        {
          "indexed": true,
          "internalType": "address",
          "name": "approved",
          "type": "address"
        },
        {
          "indexed": true,
          "internalType": "uint256",
          "name": "tokenId",
          "type": "uint256"
        }
      ],
      "name": "Approval",
      "type": "event"
    },
    {
      "anonymous": false,
      "inputs": [
        {
          "indexed": true,
          "internalType": "address",
          "name": "owner",
          "type": "address"
        },
        {
          "indexed": true,
          "internalType": "address",
          "name": "operator",
          "type": "address"
        },
        {
          "indexed": false,
          "internalType": "bool",
          "name": "approved",
          "type": "bool"
        }
      ],
      "name": "ApprovalForAll",
      "type": "event"
    },
    {
      "anonymous": false,
      "inputs": [
        {
          "indexed": true,
          "internalType": "uint256",
          "name": "fromTokenId",
          "type": "uint256"
        },
        {
          "indexed": false,
          "internalType": "uint256",
          "name": "toTokenId",
          "type": "uint256"
        },
        {
          "indexed": true,
          "internalType": "address",
          "name": "from",
          "type": "address"
        },
        {
          "indexed": true,
          "internalType": "address",
          "name": "to",
          "type": "address"
        }
      ],
      "name": "ConsecutiveTransfer",
      "type": "event"
    },
    {
      "anonymous": false,
      "inputs": [
        {
          "indexed": true,
          "internalType": "address",
          "name": "previousOwner",
          "type": "address"
        },
        {
          "indexed": true,
          "internalType": "address",
          "name": "newOwner",
          "type": "address"
        }
      ],
      "name": "OwnershipTransferred",
      "type": "event"
    },
    {
      "anonymous": false,
      "inputs": [
        {
          "indexed": false,
          "internalType": "address",
          "name": "account",
          "type": "address"
        }
      ],
      "name": "Paused",
      "type": "event"
    },
    {
      "anonymous": false,
      "inputs": [
        {
          "indexed": false,
          "internalType": "address",
          "name": "account",
          "type": "address"
        }
      ],
      "name": "Presaled",
      "type": "event"
    },
    {
      "anonymous": false,
      "inputs": [
        {
          "indexed": true,
          "internalType": "address",
          "name": "from",
          "type": "address"
        },
        {
          "indexed": true,
          "internalType": "address",
          "name": "to",
          "type": "address"
        },
        {
          "indexed": true,
          "internalType": "uint256",
          "name": "tokenId",
          "type": "uint256"
        }
      ],
      "name": "Transfer",
      "type": "event"
    },
    {
      "anonymous": false,
      "inputs": [
        {
          "indexed": false,
          "internalType": "address",
          "name": "account",
          "type": "address"
        }
      ],
      "name": "Unpaused",
      "type": "event"
    },
    {
      "anonymous": false,
      "inputs": [
        {
          "indexed": false,
          "internalType": "address",
          "name": "account",
          "type": "address"
        }
      ],
      "name": "Unpresaled",
      "type": "event"
    },
    {
      "inputs": [
        {
          "internalType": "address",
          "name": "to",
          "type": "address"
        },
        {
          "internalType": "uint256",
          "name": "tokenId",
          "type": "uint256"
        }
      ],
      "name": "approve",
      "outputs": [],
      "stateMutability": "nonpayable",
      "type": "function"
    },
    {
      "inputs": [
        {
          "internalType": "address",
          "name": "owner",
          "type": "address"
        }
      ],
      "name": "balanceOf",
      "outputs": [
        {
          "internalType": "uint256",
          "name": "",
          "type": "uint256"
        }
      ],
      "stateMutability": "view",
      "type": "function",
      "constant": true
    },
    {
      "inputs": [],
      "name": "baseTokenURI",
      "outputs": [
        {
          "internalType": "string",
          "name": "",
          "type": "string"
        }
      ],
      "stateMutability": "view",
      "type": "function",
      "constant": true
    },
    {
      "inputs": [
        {
          "internalType": "uint256",
          "name": "tokenId",
          "type": "uint256"
        }
      ],
      "name": "explicitOwnershipOf",
      "outputs": [
        {
          "components": [
            {
              "internalType": "address",
              "name": "addr",
              "type": "address"
            },
            {
              "internalType": "uint64",
              "name": "startTimestamp",
              "type": "uint64"
            },
            {
              "internalType": "bool",
              "name": "burned",
              "type": "bool"
            },
            {
              "internalType": "uint24",
              "name": "extraData",
              "type": "uint24"
            }
          ],
          "internalType": "struct IERC721A.TokenOwnership",
          "name": "",
          "type": "tuple"
        }
      ],
      "stateMutability": "view",
      "type": "function",
      "constant": true
    },
    {
      "inputs": [
        {
          "internalType": "uint256[]",
          "name": "tokenIds",
          "type": "uint256[]"
        }
      ],
      "name": "explicitOwnershipsOf",
      "outputs": [
        {
          "components": [
            {
              "internalType": "address",
              "name": "addr",
              "type": "address"
            },
            {
              "internalType": "uint64",
              "name": "startTimestamp",
              "type": "uint64"
            },
            {
              "internalType": "bool",
              "name": "burned",
              "type": "bool"
            },
            {
              "internalType": "uint24",
              "name": "extraData",
              "type": "uint24"
            }
          ],
          "internalType": "struct IERC721A.TokenOwnership[]",
          "name": "",
          "type": "tuple[]"
        }
      ],
      "stateMutability": "view",
      "type": "function",
      "constant": true
    },
    {
      "inputs": [
        {
          "internalType": "uint256",
          "name": "tokenId",
          "type": "uint256"
        }
      ],
      "name": "getApproved",
      "outputs": [
        {
          "internalType": "address",
          "name": "",
          "type": "address"
        }
      ],
      "stateMutability": "view",
      "type": "function",
      "constant": true
    },
    {
      "inputs": [
        {
          "internalType": "address",
          "name": "owner",
          "type": "address"
        },
        {
          "internalType": "address",
          "name": "operator",
          "type": "address"
        }
      ],
      "name": "isApprovedForAll",
      "outputs": [
        {
          "internalType": "bool",
          "name": "",
          "type": "bool"
        }
      ],
      "stateMutability": "view",
      "type": "function",
      "constant": true
    },
    {
      "inputs": [],
      "name": "maxTotalSupply",
      "outputs": [
        {
          "internalType": "uint256",
          "name": "",
          "type": "uint256"
        }
      ],
      "stateMutability": "view",
      "type": "function",
      "constant": true
    },
    {
      "inputs": [],
      "name": "name",
      "outputs": [
        {
          "internalType": "string",
          "name": "",
          "type": "string"
        }
      ],
      "stateMutability": "view",
      "type": "function",
      "constant": true
    },
    {
      "inputs": [],
      "name": "owner",
      "outputs": [
        {
          "internalType": "address",
          "name": "",
          "type": "address"
        }
      ],
      "stateMutability": "view",
      "type": "function",
      "constant": true
    },
    {
      "inputs": [
        {
          "internalType": "uint256",
          "name": "tokenId",
          "type": "uint256"
        }
      ],
      "name": "ownerOf",
      "outputs": [
        {
          "internalType": "address",
          "name": "",
          "type": "address"
        }
      ],
      "stateMutability": "view",
      "type": "function",
      "constant": true
    },
    {
      "inputs": [],
      "name": "paused",
      "outputs": [
        {
          "internalType": "bool",
          "name": "",
          "type": "bool"
        }
      ],
      "stateMutability": "view",
      "type": "function",
      "constant": true
    },
    {
      "inputs": [],
      "name": "presalePrice",
      "outputs": [
        {
          "internalType": "uint256",
          "name": "",
          "type": "uint256"
        }
      ],
      "stateMutability": "view",
      "type": "function",
      "constant": true
    },
    {
      "inputs": [],
      "name": "presaled",
      "outputs": [
        {
          "internalType": "bool",
          "name": "",
          "type": "bool"
        }
      ],
      "stateMutability": "view",
      "type": "function",
      "constant": true
    },
    {
      "inputs": [],
      "name": "price",
      "outputs": [
        {
          "internalType": "uint256",
          "name": "",
          "type": "uint256"
        }
      ],
      "stateMutability": "view",
      "type": "function",
      "constant": true
    },
    {
      "inputs": [],
      "name": "renounceOwnership",
      "outputs": [],
      "stateMutability": "nonpayable",
      "type": "function"
    },
    {
      "inputs": [
        {
          "internalType": "address",
          "name": "from",
          "type": "address"
        },
        {
          "internalType": "address",
          "name": "to",
          "type": "address"
        },
        {
          "internalType": "uint256",
          "name": "tokenId",
          "type": "uint256"
        }
      ],
      "name": "safeTransferFrom",
      "outputs": [],
      "stateMutability": "nonpayable",
      "type": "function"
    },
    {
      "inputs": [
        {
          "internalType": "address",
          "name": "from",
          "type": "address"
        },
        {
          "internalType": "address",
          "name": "to",
          "type": "address"
        },
        {
          "internalType": "uint256",
          "name": "tokenId",
          "type": "uint256"
        },
        {
          "internalType": "bytes",
          "name": "_data",
          "type": "bytes"
        }
      ],
      "name": "safeTransferFrom",
      "outputs": [],
      "stateMutability": "nonpayable",
      "type": "function"
    },
    {
      "inputs": [
        {
          "internalType": "address",
          "name": "operator",
          "type": "address"
        },
        {
          "internalType": "bool",
          "name": "approved",
          "type": "bool"
        }
      ],
      "name": "setApprovalForAll",
      "outputs": [],
      "stateMutability": "nonpayable",
      "type": "function"
    },
    {
      "inputs": [
        {
          "internalType": "bytes4",
          "name": "interfaceId",
          "type": "bytes4"
        }
      ],
      "name": "supportsInterface",
      "outputs": [
        {
          "internalType": "bool",
          "name": "",
          "type": "bool"
        }
      ],
      "stateMutability": "view",
      "type": "function",
      "constant": true
    },
    {
      "inputs": [],
      "name": "symbol",
      "outputs": [
        {
          "internalType": "string",
          "name": "",
          "type": "string"
        }
      ],
      "stateMutability": "view",
      "type": "function",
      "constant": true
    },
    {
      "inputs": [
        {
          "internalType": "uint256",
          "name": "tokenId",
          "type": "uint256"
        }
      ],
      "name": "tokenURI",
      "outputs": [
        {
          "internalType": "string",
          "name": "",
          "type": "string"
        }
      ],
      "stateMutability": "view",
      "type": "function",
      "constant": true
    },
    {
      "inputs": [
        {
          "internalType": "address",
          "name": "owner",
          "type": "address"
        }
      ],
      "name": "tokensOfOwner",
      "outputs": [
        {
          "internalType": "uint256[]",
          "name": "",
          "type": "uint256[]"
        }
      ],
      "stateMutability": "view",
      "type": "function",
      "constant": true
    },
    {
      "inputs": [
        {
          "internalType": "address",
          "name": "owner",
          "type": "address"
        },
        {
          "internalType": "uint256",
          "name": "start",
          "type": "uint256"
        },
        {
          "internalType": "uint256",
          "name": "stop",
          "type": "uint256"
        }
      ],
      "name": "tokensOfOwnerIn",
      "outputs": [
        {
          "internalType": "uint256[]",
          "name": "",
          "type": "uint256[]"
        }
      ],
      "stateMutability": "view",
      "type": "function",
      "constant": true
    },
    {
      "inputs": [],
      "name": "totalSupply",
      "outputs": [
        {
          "internalType": "uint256",
          "name": "",
          "type": "uint256"
        }
      ],
      "stateMutability": "view",
      "type": "function",
      "constant": true
    },
    {
      "inputs": [
        {
          "internalType": "address",
          "name": "from",
          "type": "address"
        },
        {
          "internalType": "address",
          "name": "to",
          "type": "address"
        },
        {
          "internalType": "uint256",
          "name": "tokenId",
          "type": "uint256"
        }
      ],
      "name": "transferFrom",
      "outputs": [],
      "stateMutability": "nonpayable",
      "type": "function"
    },
    {
      "inputs": [
        {
          "internalType": "address",
          "name": "newOwner",
          "type": "address"
        }
      ],
      "name": "transferOwnership",
      "outputs": [],
      "stateMutability": "nonpayable",
      "type": "function"
    },
    {
      "inputs": [],
      "name": "totalMinted",
      "outputs": [
        {
          "internalType": "uint256",
          "name": "",
          "type": "uint256"
        }
      ],
      "stateMutability": "view",
      "type": "function",
      "constant": true
    },
    {
      "inputs": [],
      "name": "totalBurned",
      "outputs": [
        {
          "internalType": "uint256",
          "name": "",
          "type": "uint256"
        }
      ],
      "stateMutability": "view",
      "type": "function",
      "constant": true
    },
    {
      "inputs": [
        {
          "internalType": "address",
          "name": "owner",
          "type": "address"
        }
      ],
      "name": "numberMinted",
      "outputs": [
        {
          "internalType": "uint256",
          "name": "",
          "type": "uint256"
        }
      ],
      "stateMutability": "view",
      "type": "function",
      "constant": true
    },
    {
      "inputs": [
        {
          "internalType": "uint256",
          "name": "_amount",
          "type": "uint256"
        }
      ],
      "name": "mint",
      "outputs": [],
      "stateMutability": "payable",
      "type": "function",
      "payable": true
    },
    {
      "inputs": [
        {
          "internalType": "uint256",
          "name": "_amount",
          "type": "uint256"
        },
        {
          "internalType": "bytes",
          "name": "_signature",
          "type": "bytes"
        }
      ],
      "name": "presaleMint",
      "outputs": [],
      "stateMutability": "payable",
      "type": "function",
      "payable": true
    },
    {
      "inputs": [
        {
          "internalType": "string",
          "name": "_baseTokenURI",
          "type": "string"
        }
      ],
      "name": "setBaseURI",
      "outputs": [],
      "stateMutability": "nonpayable",
      "type": "function"
    },
    {
      "inputs": [
        {
          "internalType": "uint256",
          "name": "_newPrice",
          "type": "uint256"
        }
      ],
      "name": "setPrice",
      "outputs": [],
      "stateMutability": "nonpayable",
      "type": "function"
    },
    {
      "inputs": [
        {
          "internalType": "uint256",
          "name": "_newPrice",
          "type": "uint256"
        }
      ],
      "name": "setPresalePrice",
      "outputs": [],
      "stateMutability": "nonpayable",
      "type": "function"
    },
    {
      "inputs": [
        {
          "internalType": "uint256",
          "name": "_count",
          "type": "uint256"
        }
      ],
      "name": "setMaxTotalSupply",
      "outputs": [],
      "stateMutability": "nonpayable",
      "type": "function"
    },
    {
      "inputs": [],
      "name": "withdraw",
      "outputs": [],
      "stateMutability": "nonpayable",
      "type": "function"
    },
    {
      "inputs": [],
      "name": "pause",
      "outputs": [],
      "stateMutability": "nonpayable",
      "type": "function"
    },
    {
      "inputs": [],
      "name": "unpause",
      "outputs": [],
      "stateMutability": "nonpayable",
      "type": "function"
    },
    {
      "inputs": [],
      "name": "presale",
      "outputs": [],
      "stateMutability": "nonpayable",
      "type": "function"
    },
    {
      "inputs": [],
      "name": "unpresale",
      "outputs": [],
      "stateMutability": "nonpayable",
      "type": "function"
    }
  ],
  "bytecode": "0x6080604052662386f26fc10000600b819055600c55610d05600d55600e80546001600160a01b031990811673402351069cff2f0324a147ec0a138a1c2149159117909155600f80549091167366b60143fe3388551a4749acd5c07bbd368874ad1790553480156200006f57600080fd5b5060405162002ed438038062002ed4833981016040819052620000929162000377565b604080518082018252600680825265436173696e6f60d01b602080840182815285518087019096529285528401528151919291620000d391600291620002bb565b508051620000e9906003906020840190620002bb565b5050600160005550620000fc336200012a565b6008805460ff60a01b19169055600160095562000119816200017c565b620001236200019f565b5062000490565b600880546001600160a01b038381166001600160a01b0319831681179093556040519116919082907f8be0079c531659141344cd1fd0a4f28419497f9722a3daafe3b4186f6b6457e090600090a35050565b62000186620001b5565b80516200019b90600a906020840190620002bb565b5050565b620001a9620001b5565b620001b362000215565b565b6008546001600160a01b03163314620001b35760405162461bcd60e51b815260206004820181905260248201527f4f776e61626c653a2063616c6c6572206973206e6f7420746865206f776e657260448201526064015b60405180910390fd5b600854600160a81b900460ff1615620002625760405162461bcd60e51b815260206004820152600e60248201526d141c995cd85b194818db1bdcd95960921b60448201526064016200020c565b6008805460ff60a81b1916600160a81b1790557fb1412a7cd96bc4195d633c938189c320dcbeb2cff60c1b8bdd872678fb3514b46200029e3390565b6040516001600160a01b03909116815260200160405180910390a1565b828054620002c99062000453565b90600052602060002090601f016020900481019282620002ed576000855562000338565b82601f106200030857805160ff191683800117855562000338565b8280016001018555821562000338579182015b82811115620003385782518255916020019190600101906200031b565b50620003469291506200034a565b5090565b5b808211156200034657600081556001016200034b565b634e487b7160e01b600052604160045260246000fd5b600060208083850312156200038b57600080fd5b82516001600160401b0380821115620003a357600080fd5b818501915085601f830112620003b857600080fd5b815181811115620003cd57620003cd62000361565b604051601f8201601f19908116603f01168101908382118183101715620003f857620003f862000361565b8160405282815288868487010111156200041157600080fd5b600093505b8284101562000435578484018601518185018701529285019262000416565b82841115620004475760008684830101525b98975050505050505050565b600181811c908216806200046857607f821691505b602082108114156200048a57634e487b7160e01b600052602260045260246000fd5b50919050565b612a3480620004a06000396000f3fe6080604052600436106102c55760003560e01c80638456cb5911610179578063a2309ff8116100d6578063d89135cd1161008a578063f2fde38b11610064578063f2fde38b14610788578063fd24a854146107a8578063fdea8e0b146107bb57600080fd5b8063d89135cd1461070a578063dc33e6811461071f578063e985e9c51461073f57600080fd5b8063c23dc68f116100bb578063c23dc68f146106a8578063c87b56dd146106d5578063d547cfb7146106f557600080fd5b8063a2309ff81461066f578063b88d4fde1461068857600080fd5b806395d89b411161012d578063a035b1fe11610112578063a035b1fe14610626578063a0712d681461063c578063a22cb4651461064f57600080fd5b806395d89b41146105f157806399a2557a1461060657600080fd5b8063854938531161015e578063854938531461059e5780638da5cb5b146105b357806391b7f5ed146105d157600080fd5b80638456cb591461055c5780638462151c1461057157600080fd5b80633f3e4c11116102275780635bbb2177116101db5780636352211e116101c05780636352211e1461050757806370a0823114610527578063715018a61461054757600080fd5b80635bbb2177146104bb5780635c975abb146104e857600080fd5b806342842e0e1161020c57806342842e0e1461045c5780634cb2f9ea1461047c57806355f804b31461049b57600080fd5b80633f3e4c11146104275780633f4ba83a1461044757600080fd5b806318160ddd1161027e5780632ab4d052116102635780632ab4d052146103dc5780633549345e146103f25780633ccfd60b1461041257600080fd5b806318160ddd1461039f57806323b872dd146103bc57600080fd5b806306fdde03116102af57806306fdde0314610323578063081812fc14610345578063095ea7b31461037d57600080fd5b80620e7fa8146102ca57806301ffc9a7146102f3575b600080fd5b3480156102d657600080fd5b506102e0600c5481565b6040519081526020015b60405180910390f35b3480156102ff57600080fd5b5061031361030e3660046123ad565b6107d0565b60405190151581526020016102ea565b34801561032f57600080fd5b5061033861086d565b6040516102ea9190612422565b34801561035157600080fd5b50610365610360366004612435565b6108ff565b6040516001600160a01b0390911681526020016102ea565b34801561038957600080fd5b5061039d61039836600461246a565b61095c565b005b3480156103ab57600080fd5b5060015460005403600019016102e0565b3480156103c857600080fd5b5061039d6103d7366004612494565b610a2d565b3480156103e857600080fd5b506102e0600d5481565b3480156103fe57600080fd5b5061039d61040d366004612435565b610c0a565b34801561041e57600080fd5b5061039d610c17565b34801561043357600080fd5b5061039d610442366004612435565b610d08565b34801561045357600080fd5b5061039d610d15565b34801561046857600080fd5b5061039d610477366004612494565b610d27565b34801561048857600080fd5b50600854600160a81b900460ff16610313565b3480156104a757600080fd5b5061039d6104b636600461255c565b610d47565b3480156104c757600080fd5b506104db6104d63660046125a5565b610d66565b6040516102ea919061261a565b3480156104f457600080fd5b50600854600160a01b900460ff16610313565b34801561051357600080fd5b50610365610522366004612435565b610e32565b34801561053357600080fd5b506102e0610542366004612697565b610e3d565b34801561055357600080fd5b5061039d610ea5565b34801561056857600080fd5b5061039d610eb7565b34801561057d57600080fd5b5061059161058c366004612697565b610ec7565b6040516102ea91906126b2565b3480156105aa57600080fd5b5061039d610fd2565b3480156105bf57600080fd5b506008546001600160a01b0316610365565b3480156105dd57600080fd5b5061039d6105ec366004612435565b610fe2565b3480156105fd57600080fd5b50610338610fef565b34801561061257600080fd5b506105916106213660046126ea565b610ffe565b34801561063257600080fd5b506102e0600b5481565b61039d61064a366004612435565b6111a3565b34801561065b57600080fd5b5061039d61066a36600461271d565b611212565b34801561067b57600080fd5b50600054600019016102e0565b34801561069457600080fd5b5061039d6106a3366004612779565b6112c6565b3480156106b457600080fd5b506106c86106c3366004612435565b611310565b6040516102ea91906127e1565b3480156106e157600080fd5b506103386106f0366004612435565b611398565b34801561070157600080fd5b50610338611435565b34801561071657600080fd5b506102e06114c3565b34801561072b57600080fd5b506102e061073a366004612697565b6114ce565b34801561074b57600080fd5b5061031361075a366004612826565b6001600160a01b03918216600090815260076020908152604080832093909416825291909152205460ff1690565b34801561079457600080fd5b5061039d6107a3366004612697565b6114f9565b61039d6107b6366004612859565b611586565b3480156107c757600080fd5b5061039d611671565b60007f01ffc9a7000000000000000000000000000000000000000000000000000000006001600160e01b03198316148061083357507f80ac58cd000000000000000000000000000000000000000000000000000000006001600160e01b03198316145b8061086757507f5b5e139f000000000000000000000000000000000000000000000000000000006001600160e01b03198316145b92915050565b60606002805461087c906128a0565b80601f01602080910402602001604051908101604052809291908181526020018280546108a8906128a0565b80156108f55780601f106108ca576101008083540402835291602001916108f5565b820191906000526020600020905b8154815290600101906020018083116108d857829003601f168201915b5050505050905090565b600061090a82611681565b610940576040517fcf4700e400000000000000000000000000000000000000000000000000000000815260040160405180910390fd5b506000908152600660205260409020546001600160a01b031690565b600061096782610e32565b9050336001600160a01b038216146109b957610983813361075a565b6109b9576040517fcfb3b94200000000000000000000000000000000000000000000000000000000815260040160405180910390fd5b60008281526006602052604080822080547fffffffffffffffffffffffff0000000000000000000000000000000000000000166001600160a01b0387811691821790925591518593918516917f8c5be1e5ebec7d5bd14f71427d1e84f3dd0314c0f7b2291e5b200ac8c7c3b92591a4505050565b6000610a38826116b6565b9050836001600160a01b0316816001600160a01b031614610a85576040517fa114810000000000000000000000000000000000000000000000000000000000815260040160405180910390fd5b60008281526006602052604090208054338082146001600160a01b03881690911417610aeb57610ab5863361075a565b610aeb576040517f59c896be00000000000000000000000000000000000000000000000000000000815260040160405180910390fd5b6001600160a01b038516610b2b576040517fea553b3400000000000000000000000000000000000000000000000000000000815260040160405180910390fd5b8015610b3657600082555b6001600160a01b038681166000908152600560205260408082208054600019019055918716808252919020805460010190554260a01b17600160e11b17600085815260046020526040902055600160e11b8316610bc15760018401600081815260046020526040902054610bbf576000548114610bbf5760008181526004602052604090208490555b505b83856001600160a01b0316876001600160a01b03167fddf252ad1be2c89b69c2b068fc378daa952ba7f163c4a11628f55a4df523b3ef60405160405180910390a4505050505050565b610c12611738565b600c55565b610c1f611738565b60026009541415610c775760405162461bcd60e51b815260206004820152601f60248201527f5265656e7472616e637947756172643a207265656e7472616e742063616c6c0060448201526064015b60405180910390fd5b60026009556000610c896064476128f1565b600e549091506001600160a01b03166108fc610ca683600c612913565b6040518115909202916000818181858888f19350505050610cc657600080fd5b600f546001600160a01b03166108fc610ce0836058612913565b6040518115909202916000818181858888f19350505050610d0057600080fd5b506001600955565b610d10611738565b600d55565b610d1d611738565b610d25611792565b565b610d42838383604051806020016040528060008152506112c6565b505050565b610d4f611738565b8051610d6290600a9060208401906122fe565b5050565b60608160008167ffffffffffffffff811115610d8457610d846124d0565b604051908082528060200260200182016040528015610dd657816020015b604080516080810182526000808252602080830182905292820181905260608201528252600019909201910181610da25790505b50905060005b828114610e2957610e04868683818110610df857610df8612932565b90506020020135611310565b828281518110610e1657610e16612932565b6020908102919091010152600101610ddc565b50949350505050565b6000610867826116b6565b60006001600160a01b038216610e7f576040517f8f4eb60400000000000000000000000000000000000000000000000000000000815260040160405180910390fd5b506001600160a01b031660009081526005602052604090205467ffffffffffffffff1690565b610ead611738565b610d256000611802565b610ebf611738565b610d2561186c565b60606000806000610ed785610e3d565b905060008167ffffffffffffffff811115610ef457610ef46124d0565b604051908082528060200260200182016040528015610f1d578160200160208202803683370190505b5060408051608081018252600080825260208201819052918101829052606081019190915290915060015b838614610fc657610f58816118ca565b9150816040015115610f6957610fbe565b81516001600160a01b031615610f7e57815194505b876001600160a01b0316856001600160a01b03161415610fbe5780838780600101985081518110610fb157610fb1612932565b6020026020010181815250505b600101610f48565b50909695505050505050565b610fda611738565b610d25611949565b610fea611738565b600b55565b60606003805461087c906128a0565b6060818310611039576040517f32c1995a00000000000000000000000000000000000000000000000000000000815260040160405180910390fd5b60008061104560005490565b9050600185101561105557600194505b80841115611061578093505b600061106c87610e3d565b90508486101561108b5785850381811015611085578091505b5061108f565b5060005b60008167ffffffffffffffff8111156110aa576110aa6124d0565b6040519080825280602002602001820160405280156110d3578160200160208202803683370190505b509050816110e657935061119c92505050565b60006110f188611310565b905060008160400151611102575080515b885b8881141580156111145750848714155b1561119057611122816118ca565b925082604001511561113357611188565b82516001600160a01b03161561114857825191505b8a6001600160a01b0316826001600160a01b03161415611188578084888060010199508151811061117b5761117b612932565b6020026020010181815250505b600101611104565b50505092835250909150505b9392505050565b600854600160a81b900460ff16156111fd5760405162461bcd60e51b815260206004820152600e60248201527f50726573616c6520636c6f7365640000000000000000000000000000000000006044820152606401610c6e565b6112056119f1565b61120f3382611a4b565b50565b6001600160a01b038216331415611255576040517fb06307db00000000000000000000000000000000000000000000000000000000815260040160405180910390fd5b3360008181526007602090815260408083206001600160a01b03871680855290835292819020805460ff191686151590811790915590519081529192917f17307eab39ab6107e8899845ad3d59bd9653f200f220920489ca2b5937696c31910160405180910390a35050565b905090565b6112d1848484610a2d565b6001600160a01b0383163b1561130a576112ed84848484611a65565b61130a576040516368d2bf6b60e11b815260040160405180910390fd5b50505050565b604080516080810182526000808252602082018190529181018290526060810191909152604080516080810182526000808252602082018190529181018290526060810191909152600183108061136957506000548310155b156113745792915050565b61137d836118ca565b905080604001511561138f5792915050565b61119c83611b5d565b60606113a382611681565b6113d9576040517fa14c4b5000000000000000000000000000000000000000000000000000000000815260040160405180910390fd5b60006113e3611bd5565b9050805160001415611404576040518060200160405280600081525061119c565b8061140e84611be4565b60405160200161141f929190612948565b6040516020818303038152906040529392505050565b600a8054611442906128a0565b80601f016020809104026020016040519081016040528092919081815260200182805461146e906128a0565b80156114bb5780601f10611490576101008083540402835291602001916114bb565b820191906000526020600020905b81548152906001019060200180831161149e57829003601f168201915b505050505081565b60006112c160015490565b6001600160a01b0381166000908152600560205260408082205467ffffffffffffffff911c16610867565b611501611738565b6001600160a01b03811661157d5760405162461bcd60e51b815260206004820152602660248201527f4f776e61626c653a206e6577206f776e657220697320746865207a65726f206160448201527f64647265737300000000000000000000000000000000000000000000000000006064820152608401610c6e565b61120f81611802565b600854600160a81b900460ff166115df5760405162461bcd60e51b815260206004820152600b60248201527f53616c6520636c6f7365640000000000000000000000000000000000000000006044820152606401610c6e565b6115e76119f1565b60006115f33383611c33565b90506116076008546001600160a01b031690565b6001600160a01b0316816001600160a01b0316146116675760405162461bcd60e51b815260206004820152601660248201527f4e6f7420617574686f72697a656420746f206d696e74000000000000000000006044820152606401610c6e565b610d423384611a4b565b611679611738565b610d25611cd0565b600081600111158015611695575060005482105b8015610867575050600090815260046020526040902054600160e01b161590565b600081806001116117065760005481101561170657600081815260046020526040902054600160e01b8116611704575b8061119c5750600019016000818152600460205260409020546116e6565b505b6040517fdf2d9b4200000000000000000000000000000000000000000000000000000000815260040160405180910390fd5b6008546001600160a01b03163314610d255760405162461bcd60e51b815260206004820181905260248201527f4f776e61626c653a2063616c6c6572206973206e6f7420746865206f776e65726044820152606401610c6e565b61179a611d80565b600880547fffffffffffffffffffffff00ffffffffffffffffffffffffffffffffffffffff1690557f5db9ee0a495bf2e6ff9c91a7834c1ba4fdd244a5e8aa4e537bd38aeae4b073aa335b6040516001600160a01b03909116815260200160405180910390a1565b600880546001600160a01b038381167fffffffffffffffffffffffff0000000000000000000000000000000000000000831681179093556040519116919082907f8be0079c531659141344cd1fd0a4f28419497f9722a3daafe3b4186f6b6457e090600090a35050565b6118746119f1565b600880547fffffffffffffffffffffff00ffffffffffffffffffffffffffffffffffffffff16600160a01b1790557f62e78cea01bee320cd4e420270b5ea74000d11b0c9f74754ebdbfc544b05a2586117e53390565b60408051608081018252600080825260208201819052918101829052606081019190915260008281526004602052604090205461086790604080516080810182526001600160a01b038316815260a083901c67ffffffffffffffff166020820152600160e01b831615159181019190915260e89190911c606082015290565b600854600160a81b900460ff166119a25760405162461bcd60e51b815260206004820152600b60248201527f53616c6520636c6f7365640000000000000000000000000000000000000000006044820152606401610c6e565b600880547fffffffffffffffffffff00ffffffffffffffffffffffffffffffffffffffffff1690557f9e209206b95275a497262e47a30901f0716b2d6d19618dd5e9b7b68237e7cb71336117e5565b600854600160a01b900460ff1615610d255760405162461bcd60e51b815260206004820152601060248201527f5061757361626c653a20706175736564000000000000000000000000000000006044820152606401610c6e565b610d62828260405180602001604052806000815250611dd9565b604051630a85bd0160e11b81526000906001600160a01b0385169063150b7a0290611a9a903390899088908890600401612977565b602060405180830381600087803b158015611ab457600080fd5b505af1925050508015611ae4575060408051601f3d908101601f19168201909252611ae1918101906129b3565b60015b611b3f573d808015611b12576040519150601f19603f3d011682016040523d82523d6000602084013e611b17565b606091505b508051611b37576040516368d2bf6b60e11b815260040160405180910390fd5b805181602001fd5b6001600160e01b031916630a85bd0160e11b1490505b949350505050565b604080516080810182526000808252602082018190529181018290526060810191909152610867611b8d836116b6565b604080516080810182526001600160a01b038316815260a083901c67ffffffffffffffff166020820152600160e01b831615159181019190915260e89190911c606082015290565b6060600a805461087c906128a0565b604080516080810191829052607f0190826030600a8206018353600a90045b8015611c2157600183039250600a81066030018353600a9004611c03565b50819003601f19909101908152919050565b60408051606084901b7fffffffffffffffffffffffffffffffffffffffff00000000000000000000000016602080830191909152825160148184030181526034830184528051908201207f19457468657265756d205369676e6564204d6573736167653a0a3332000000006054840152607080840191909152835180840390910181526090909201909252805191012060009061119c9083611e46565b600854600160a81b900460ff1615611d2a5760405162461bcd60e51b815260206004820152600e60248201527f50726573616c6520636c6f7365640000000000000000000000000000000000006044820152606401610c6e565b600880547fffffffffffffffffffff00ffffffffffffffffffffffffffffffffffffffffff16600160a81b1790557fb1412a7cd96bc4195d633c938189c320dcbeb2cff60c1b8bdd872678fb3514b46117e53390565b600854600160a01b900460ff16610d255760405162461bcd60e51b815260206004820152601460248201527f5061757361626c653a206e6f74207061757365640000000000000000000000006044820152606401610c6e565b611de38383611e6a565b6001600160a01b0383163b15610d42576000548281035b611e0d6000868380600101945086611a65565b611e2a576040516368d2bf6b60e11b815260040160405180910390fd5b818110611dfa578160005414611e3f57600080fd5b5050505050565b6000806000611e558585611f94565b91509150611e6281612004565b509392505050565b60005481611ea4576040517fb562e8dd00000000000000000000000000000000000000000000000000000000815260040160405180910390fd5b6001600160a01b03831660008181526005602090815260408083208054680100000000000000018802019055848352600490915281206001851460e11b4260a01b178317905582840190839083907fddf252ad1be2c89b69c2b068fc378daa952ba7f163c4a11628f55a4df523b3ef8180a4600183015b818114611f5357808360007fddf252ad1be2c89b69c2b068fc378daa952ba7f163c4a11628f55a4df523b3ef600080a4600101611f1b565b5081611f8b576040517f2e07630000000000000000000000000000000000000000000000000000000000815260040160405180910390fd5b60005550505050565b600080825160411415611fcb5760208301516040840151606085015160001a611fbf878285856121bf565b94509450505050611ffd565b825160401415611ff55760208301516040840151611fea8683836122ac565b935093505050611ffd565b506000905060025b9250929050565b6000816004811115612018576120186129d0565b14156120215750565b6001816004811115612035576120356129d0565b14156120835760405162461bcd60e51b815260206004820152601860248201527f45434453413a20696e76616c6964207369676e617475726500000000000000006044820152606401610c6e565b6002816004811115612097576120976129d0565b14156120e55760405162461bcd60e51b815260206004820152601f60248201527f45434453413a20696e76616c6964207369676e6174757265206c656e677468006044820152606401610c6e565b60038160048111156120f9576120f96129d0565b14156121525760405162461bcd60e51b815260206004820152602260248201527f45434453413a20696e76616c6964207369676e6174757265202773272076616c604482015261756560f01b6064820152608401610c6e565b6004816004811115612166576121666129d0565b141561120f5760405162461bcd60e51b815260206004820152602260248201527f45434453413a20696e76616c6964207369676e6174757265202776272076616c604482015261756560f01b6064820152608401610c6e565b6000807f7fffffffffffffffffffffffffffffff5d576e7357a4501ddfe92f46681b20a08311156121f657506000905060036122a3565b8460ff16601b1415801561220e57508460ff16601c14155b1561221f57506000905060046122a3565b6040805160008082526020820180845289905260ff881692820192909252606081018690526080810185905260019060a0016020604051602081039080840390855afa158015612273573d6000803e3d6000fd5b5050604051601f1901519150506001600160a01b03811661229c576000600192509250506122a3565b9150600090505b94509492505050565b6000807f7fffffffffffffffffffffffffffffffffffffffffffffffffffffffffffffff8316816122e260ff86901c601b6129e6565b90506122f0878288856121bf565b935093505050935093915050565b82805461230a906128a0565b90600052602060002090601f01602090048101928261232c5760008555612372565b82601f1061234557805160ff1916838001178555612372565b82800160010185558215612372579182015b82811115612372578251825591602001919060010190612357565b5061237e929150612382565b5090565b5b8082111561237e5760008155600101612383565b6001600160e01b03198116811461120f57600080fd5b6000602082840312156123bf57600080fd5b813561119c81612397565b60005b838110156123e55781810151838201526020016123cd565b8381111561130a5750506000910152565b6000815180845261240e8160208601602086016123ca565b601f01601f19169290920160200192915050565b60208152600061119c60208301846123f6565b60006020828403121561244757600080fd5b5035919050565b80356001600160a01b038116811461246557600080fd5b919050565b6000806040838503121561247d57600080fd5b6124868361244e565b946020939093013593505050565b6000806000606084860312156124a957600080fd5b6124b28461244e565b92506124c06020850161244e565b9150604084013590509250925092565b634e487b7160e01b600052604160045260246000fd5b600067ffffffffffffffff80841115612501576125016124d0565b604051601f8501601f19908116603f01168101908282118183101715612529576125296124d0565b8160405280935085815286868601111561254257600080fd5b858560208301376000602087830101525050509392505050565b60006020828403121561256e57600080fd5b813567ffffffffffffffff81111561258557600080fd5b8201601f8101841361259657600080fd5b611b55848235602084016124e6565b600080602083850312156125b857600080fd5b823567ffffffffffffffff808211156125d057600080fd5b818501915085601f8301126125e457600080fd5b8135818111156125f357600080fd5b8660208260051b850101111561260857600080fd5b60209290920196919550909350505050565b6020808252825182820181905260009190848201906040850190845b81811015610fc6576126848385516001600160a01b03815116825267ffffffffffffffff602082015116602083015260408101511515604083015262ffffff60608201511660608301525050565b9284019260809290920191600101612636565b6000602082840312156126a957600080fd5b61119c8261244e565b6020808252825182820181905260009190848201906040850190845b81811015610fc6578351835292840192918401916001016126ce565b6000806000606084860312156126ff57600080fd5b6127088461244e565b95602085013595506040909401359392505050565b6000806040838503121561273057600080fd5b6127398361244e565b91506020830135801515811461274e57600080fd5b809150509250929050565b600082601f83011261276a57600080fd5b61119c838335602085016124e6565b6000806000806080858703121561278f57600080fd5b6127988561244e565b93506127a66020860161244e565b925060408501359150606085013567ffffffffffffffff8111156127c957600080fd5b6127d587828801612759565b91505092959194509250565b81516001600160a01b0316815260208083015167ffffffffffffffff169082015260408083015115159082015260608083015162ffffff169082015260808101610867565b6000806040838503121561283957600080fd5b6128428361244e565b91506128506020840161244e565b90509250929050565b6000806040838503121561286c57600080fd5b82359150602083013567ffffffffffffffff81111561288a57600080fd5b61289685828601612759565b9150509250929050565b600181811c908216806128b457607f821691505b602082108114156128d557634e487b7160e01b600052602260045260246000fd5b50919050565b634e487b7160e01b600052601160045260246000fd5b60008261290e57634e487b7160e01b600052601260045260246000fd5b500490565b600081600019048311821515161561292d5761292d6128db565b500290565b634e487b7160e01b600052603260045260246000fd5b6000835161295a8184602088016123ca565b83519083019061296e8183602088016123ca565b01949350505050565b60006001600160a01b038087168352808616602084015250836040830152608060608301526129a960808301846123f6565b9695505050505050565b6000602082840312156129c557600080fd5b815161119c81612397565b634e487b7160e01b600052602160045260246000fd5b600082198211156129f9576129f96128db565b50019056fea2646970667358221220a1d42045f4d70b3b81120ac32eaa349526a37a7ec4bfddd5ab78f956af6c8a4464736f6c63430008090033",
  "immutableReferences": {},
  "source": "// SPDX-License-Identifier: MIT\npragma solidity ^0.8.9;\n\nimport \"erc721a/contracts/extensions/ERC721AQueryable.sol\";\nimport \"@openzeppelin/contracts/access/Ownable.sol\";\nimport \"@openzeppelin/contracts/security/Pausable.sol\";\nimport \"@openzeppelin/contracts/utils/math/SafeMath.sol\";\nimport \"@openzeppelin/contracts/utils/cryptography/ECDSA.sol\";\nimport \"@openzeppelin/contracts/security/ReentrancyGuard.sol\";\n\nimport \"./Presalable.sol\";\n\ncontract Casino is ERC721AQueryable, Ownable, Pausable, Presalable, ReentrancyGuard {\n  using SafeMath for uint;\n  using ECDSA for bytes32;\n\n  string public baseTokenURI;\n\n  uint256 public price = 0.01 ether;\n  uint256 public presalePrice = 0.01 ether;\n  uint256 public maxTotalSupply = 3333;\n\n  address t1 = 0x402351069CFF2F0324A147eC0a138a1C21491591;\n  address t2 = 0x66B60143Fe3388551a4749aCD5C07Bbd368874ad;\n\n  constructor(string memory _baseTokenURI) ERC721A(\"Casino\", \"Casino\")  {\n    setBaseURI(_baseTokenURI);\n    presale();\n  }\n\n  function totalMinted() public view returns (uint256) {\n    return _totalMinted();\n  }\n\n  function totalBurned() public view returns (uint256) {\n    return _totalBurned();\n  }\n\n  function numberMinted(address owner) public view returns (uint256) {\n    return _numberMinted(owner);\n  }\n\n  function mint(uint256 _amount) public payable whenNotPresaled whenNotPaused {\n    _safeMint(msg.sender, _amount);\n  }\n\n  function presaleMint(uint256 _amount, bytes memory _signature) public payable whenPresaled whenNotPaused {        \n    address signer = _recoverSigner(msg.sender, _signature);\n\n    require(signer == owner(), \"Not authorized to mint\");\n  \n    _safeMint(msg.sender, _amount);\n  }\n\n  function _baseURI() internal view virtual override returns (string memory) {\n    return baseTokenURI;\n  }\n\n  function setBaseURI(string memory _baseTokenURI) public onlyOwner {\n    baseTokenURI = _baseTokenURI;\n  }\n\n  function setPrice(uint256 _newPrice) public onlyOwner{\n    price = _newPrice;\n  }\n\n  function setPresalePrice(uint256 _newPrice) public onlyOwner{\n    presalePrice = _newPrice;\n  }\n\n  function setMaxTotalSupply(uint256 _count) public onlyOwner{\n    maxTotalSupply = _count;\n  }\n\n  function withdraw() external onlyOwner nonReentrant {\n    uint256 _balance = address(this).balance / 100;\n\n    require(payable(t1).send(_balance * 12));\n    require(payable(t2).send(_balance * 88));\n  }\n\n  function pause() public onlyOwner {\n    _pause();\n  }\n\n  function unpause() public onlyOwner {\n    _unpause();\n  }\n\n  function presale() public onlyOwner {\n    _presale();\n  }\n\n  function unpresale() public onlyOwner {\n    _unpresale();\n  }\n\n  function _recoverSigner(address _wallet, bytes memory _signature) private pure returns (address){\n    return keccak256(abi.encodePacked(_wallet)).toEthSignedMessageHash().recover(_signature);\n  }\n\n  function _startTokenId() internal view virtual override returns (uint256) {\n    return 1;\n  }\n}",
  "sourcePath": "/Users/doss/Projects/nft-casino/packages/truffle/contracts/Casino.sol",
  "compiler": {
    "name": "solc",
    "version": "0.8.9+commit.e5eed63a.Emscripten.clang"
  },
  "schemaVersion": "3.4.7",
  "updatedAt": "2022-08-13T23:14:55.625Z",
  "networkType": "ethereum",
  "devdoc": {
    "kind": "dev",
    "methods": {
      "approve(address,uint256)": {
        "details": "Gives permission to `to` to transfer `tokenId` token to another account. The approval is cleared when the token is transferred. Only a single account can be approved at a time, so approving the zero address clears previous approvals. Requirements: - The caller must own the token or be an approved operator. - `tokenId` must exist. Emits an {Approval} event."
      },
      "balanceOf(address)": {
        "details": "Returns the number of tokens in `owner`'s account."
      },
      "explicitOwnershipOf(uint256)": {
        "details": "Returns the `TokenOwnership` struct at `tokenId` without reverting. If the `tokenId` is out of bounds: - `addr = address(0)` - `startTimestamp = 0` - `burned = false` - `extraData = 0` If the `tokenId` is burned: - `addr = <Address of owner before token was burned>` - `startTimestamp = <Timestamp when token was burned>` - `burned = true` - `extraData = <Extra data when token was burned>` Otherwise: - `addr = <Address of owner>` - `startTimestamp = <Timestamp of start of ownership>` - `burned = false` - `extraData = <Extra data at start of ownership>`"
      },
      "explicitOwnershipsOf(uint256[])": {
        "details": "Returns an array of `TokenOwnership` structs at `tokenIds` in order. See {ERC721AQueryable-explicitOwnershipOf}"
      },
      "getApproved(uint256)": {
        "details": "Returns the account approved for `tokenId` token. Requirements: - `tokenId` must exist."
      },
      "isApprovedForAll(address,address)": {
        "details": "Returns if the `operator` is allowed to manage all of the assets of `owner`. See {setApprovalForAll}."
      },
      "name()": {
        "details": "Returns the token collection name."
      },
      "owner()": {
        "details": "Returns the address of the current owner."
      },
      "ownerOf(uint256)": {
        "details": "Returns the owner of the `tokenId` token. Requirements: - `tokenId` must exist."
      },
      "paused()": {
        "details": "Returns true if the contract is paused, and false otherwise."
      },
      "renounceOwnership()": {
        "details": "Leaves the contract without owner. It will not be possible to call `onlyOwner` functions anymore. Can only be called by the current owner. NOTE: Renouncing ownership will leave the contract without an owner, thereby removing any functionality that is only available to the owner."
      },
      "safeTransferFrom(address,address,uint256)": {
        "details": "Equivalent to `safeTransferFrom(from, to, tokenId, '')`."
      },
      "safeTransferFrom(address,address,uint256,bytes)": {
        "details": "Safely transfers `tokenId` token from `from` to `to`. Requirements: - `from` cannot be the zero address. - `to` cannot be the zero address. - `tokenId` token must exist and be owned by `from`. - If the caller is not `from`, it must be approved to move this token by either {approve} or {setApprovalForAll}. - If `to` refers to a smart contract, it must implement {IERC721Receiver-onERC721Received}, which is called upon a safe transfer. Emits a {Transfer} event."
      },
      "setApprovalForAll(address,bool)": {
        "details": "Approve or remove `operator` as an operator for the caller. Operators can call {transferFrom} or {safeTransferFrom} for any token owned by the caller. Requirements: - The `operator` cannot be the caller. Emits an {ApprovalForAll} event."
      },
      "supportsInterface(bytes4)": {
        "details": "Returns true if this contract implements the interface defined by `interfaceId`. See the corresponding [EIP section](https://eips.ethereum.org/EIPS/eip-165#how-interfaces-are-identified) to learn more about how these ids are created. This function call must use less than 30000 gas."
      },
      "symbol()": {
        "details": "Returns the token collection symbol."
      },
      "tokenURI(uint256)": {
        "details": "Returns the Uniform Resource Identifier (URI) for `tokenId` token."
      },
      "tokensOfOwner(address)": {
        "details": "Returns an array of token IDs owned by `owner`. This function scans the ownership mapping and is O(`totalSupply`) in complexity. It is meant to be called off-chain. See {ERC721AQueryable-tokensOfOwnerIn} for splitting the scan into multiple smaller scans if the collection is large enough to cause an out-of-gas error (10K collections should be fine)."
      },
      "tokensOfOwnerIn(address,uint256,uint256)": {
        "details": "Returns an array of token IDs owned by `owner`, in the range [`start`, `stop`) (i.e. `start <= tokenId < stop`). This function allows for tokens to be queried if the collection grows too big for a single call of {ERC721AQueryable-tokensOfOwner}. Requirements: - `start < stop`"
      },
      "totalSupply()": {
        "details": "Returns the total number of tokens in existence. Burned tokens will reduce the count. To get the total number of tokens minted, please see {_totalMinted}."
      },
      "transferFrom(address,address,uint256)": {
        "details": "Transfers `tokenId` from `from` to `to`. Requirements: - `from` cannot be the zero address. - `to` cannot be the zero address. - `tokenId` token must be owned by `from`. - If the caller is not `from`, it must be approved to move this token by either {approve} or {setApprovalForAll}. Emits a {Transfer} event."
      },
      "transferOwnership(address)": {
        "details": "Transfers ownership of the contract to a new account (`newOwner`). Can only be called by the current owner."
      }
    },
    "version": 1
  },
  "userdoc": {
    "errors": {
      "ApprovalCallerNotOwnerNorApproved()": [
        {
          "notice": "The caller must own the token or be an approved operator."
        }
      ],
      "ApprovalQueryForNonexistentToken()": [
        {
          "notice": "The token does not exist."
        }
      ],
      "ApproveToCaller()": [
        {
          "notice": "The caller cannot approve to their own address."
        }
      ],
      "BalanceQueryForZeroAddress()": [
        {
          "notice": "Cannot query the balance for the zero address."
        }
      ],
      "InvalidQueryRange()": [
        {
          "notice": "Invalid query range (`start` >= `stop`)."
        }
      ],
      "MintERC2309QuantityExceedsLimit()": [
        {
          "notice": "The `quantity` minted with ERC2309 exceeds the safety limit."
        }
      ],
      "MintToZeroAddress()": [
        {
          "notice": "Cannot mint to the zero address."
        }
      ],
      "MintZeroQuantity()": [
        {
          "notice": "The quantity of tokens minted must be more than zero."
        }
      ],
      "OwnerQueryForNonexistentToken()": [
        {
          "notice": "The token does not exist."
        }
      ],
      "OwnershipNotInitializedForExtraData()": [
        {
          "notice": "The `extraData` cannot be set on an unintialized ownership slot."
        }
      ],
      "TransferCallerNotOwnerNorApproved()": [
        {
          "notice": "The caller must own the token or be an approved operator."
        }
      ],
      "TransferFromIncorrectOwner()": [
        {
          "notice": "The token must be owned by `from`."
        }
      ],
      "TransferToNonERC721ReceiverImplementer()": [
        {
          "notice": "Cannot safely transfer to a contract that does not implement the ERC721Receiver interface."
        }
      ],
      "TransferToZeroAddress()": [
        {
          "notice": "Cannot transfer to the zero address."
        }
      ],
      "URIQueryForNonexistentToken()": [
        {
          "notice": "The token does not exist."
        }
      ]
    },
    "kind": "user",
    "methods": {},
    "version": 1
  }
}