{
  "contractName": "Payment",
  "abi": [
    {
      "inputs": [],
      "stateMutability": "nonpayable",
      "type": "constructor"
    },
    {
      "anonymous": false,
      "inputs": [
        {
          "indexed": false,
          "internalType": "address",
          "name": "receiver",
          "type": "address"
        },
        {
          "indexed": false,
          "internalType": "string",
          "name": "size",
          "type": "string"
        },
        {
          "indexed": false,
          "internalType": "uint256",
          "name": "price",
          "type": "uint256"
        },
        {
          "indexed": false,
          "internalType": "uint256",
          "name": "amount",
          "type": "uint256"
        }
      ],
      "name": "ChipsPurchased",
      "type": "event"
    },
    {
      "anonymous": false,
      "inputs": [
        {
          "indexed": true,
          "internalType": "address",
          "name": "previousOwner",
          "type": "address"
        },
        {
          "indexed": true,
          "internalType": "address",
          "name": "newOwner",
          "type": "address"
        }
      ],
      "name": "OwnershipTransferred",
      "type": "event"
    },
    {
      "inputs": [
        {
          "internalType": "string",
          "name": "",
          "type": "string"
        }
      ],
      "name": "amounts",
      "outputs": [
        {
          "internalType": "uint256",
          "name": "",
          "type": "uint256"
        }
      ],
      "stateMutability": "view",
      "type": "function",
      "constant": true
    },
    {
      "inputs": [],
      "name": "owner",
      "outputs": [
        {
          "internalType": "address",
          "name": "",
          "type": "address"
        }
      ],
      "stateMutability": "view",
      "type": "function",
      "constant": true
    },
    {
      "inputs": [
        {
          "internalType": "string",
          "name": "",
          "type": "string"
        }
      ],
      "name": "prices",
      "outputs": [
        {
          "internalType": "uint256",
          "name": "",
          "type": "uint256"
        }
      ],
      "stateMutability": "view",
      "type": "function",
      "constant": true
    },
    {
      "inputs": [],
      "name": "renounceOwnership",
      "outputs": [],
      "stateMutability": "nonpayable",
      "type": "function"
    },
    {
      "inputs": [
        {
          "internalType": "address",
          "name": "newOwner",
          "type": "address"
        }
      ],
      "name": "transferOwnership",
      "outputs": [],
      "stateMutability": "nonpayable",
      "type": "function"
    },
    {
      "inputs": [
        {
          "internalType": "string",
          "name": "_size",
          "type": "string"
        }
      ],
      "name": "purchaseChips",
      "outputs": [],
      "stateMutability": "payable",
      "type": "function",
      "payable": true
    },
    {
      "inputs": [
        {
          "internalType": "string",
          "name": "_size",
          "type": "string"
        },
        {
          "internalType": "uint256",
          "name": "_price",
          "type": "uint256"
        }
      ],
      "name": "setPrice",
      "outputs": [],
      "stateMutability": "nonpayable",
      "type": "function"
    },
    {
      "inputs": [
        {
          "internalType": "string",
          "name": "_size",
          "type": "string"
        },
        {
          "internalType": "uint256",
          "name": "_amount",
          "type": "uint256"
        }
      ],
      "name": "setAmount",
      "outputs": [],
      "stateMutability": "nonpayable",
      "type": "function"
    },
    {
      "inputs": [],
      "name": "withdraw",
      "outputs": [],
      "stateMutability": "nonpayable",
      "type": "function"
    }
  ],
  "bytecode": "0x6080604052600280546001600160a01b031990811673402351069cff2f0324a147ec0a138a1c2149159117909155600380549091167366b60143fe3388551a4749acd5c07bbd368874ad17905534801561005857600080fd5b506100623361019b565b600180556040805161787360f01b8082526004600280840182905284516022948190038501812066232bff5f46c000905561736d60f01b808252818301849052865191829003860182206646b2f1cf07c0009055611b5960f21b80835282840185905287519283900387018320665fec5b60ef80009055616c6760f01b808452838501869052885193849003880184206701151c96347b00009055611e1b60f21b80855284860196909652885193849003880184206702115ab5e78880009055958352600583850181905288519384900388018420600f905591835282840182905287519283900387018320601e905582528183018190528651918290038601822060329055938152808201849052855190819003850181206096905591825281019190915291519182900301902061012c90556101eb565b600080546001600160a01b038381166001600160a01b0319831681178455604051919092169283917f8be0079c531659141344cd1fd0a4f28419497f9722a3daafe3b4186f6b6457e09190a35050565b610798806101fa6000396000f3fe6080604052600436106100965760003560e01c8063715018a611610069578063c3825f4b1161004e578063c3825f4b1461015a578063eabc1dd914610192578063f2fde38b146101a557600080fd5b8063715018a61461011d5780638da5cb5b1461013257600080fd5b806322e011921461009b57806328ee2b0c1461009b5780633492baf5146100bd5780633ccfd60b14610108575b600080fd5b3480156100a757600080fd5b506100bb6100b63660046105c3565b6101c5565b005b3480156100c957600080fd5b506100f56100d8366004610608565b805160208183018101805160058252928201919093012091525481565b6040519081526020015b60405180910390f35b34801561011457600080fd5b506100bb6101f2565b34801561012957600080fd5b506100bb6102e2565b34801561013e57600080fd5b506000546040516001600160a01b0390911681526020016100ff565b34801561016657600080fd5b506100f5610175366004610608565b805160208183018101805160048252928201919093012091525481565b6100bb6101a0366004610608565b6102f6565b3480156101b157600080fd5b506100bb6101c0366004610645565b6103ce565b6101cd61045e565b806004836040516101de91906106a5565b908152604051908190036020019020555050565b6101fa61045e565b600260015414156102525760405162461bcd60e51b815260206004820152601f60248201527f5265656e7472616e637947756172643a207265656e7472616e742063616c6c0060448201526064015b60405180910390fd5b600260015560006102646064476106c1565b6002549091506001600160a01b03166108fc6102818360056106e3565b6040518115909202916000818181858888f193505050506102a157600080fd5b6003546001600160a01b03166108fc6102bb83605f6106e3565b6040518115909202916000818181858888f193505050506102db57600080fd5b5060018055565b6102ea61045e565b6102f460006104b8565b565b600060048260405161030891906106a5565b9081526020016040518091039020549050600060058360405161032b91906106a5565b90815260200160405180910390205490508134101561038c5760405162461bcd60e51b815260206004820152601f60248201527f45746865722076616c75652073656e74206973206e6f7420636f7272656374006044820152606401610249565b7f2a3714605cb164573c927e2f98121d0fdfebed1197afa1c297af9727567fa69c338484846040516103c19493929190610710565b60405180910390a1505050565b6103d661045e565b6001600160a01b0381166104525760405162461bcd60e51b815260206004820152602660248201527f4f776e61626c653a206e6577206f776e657220697320746865207a65726f206160448201527f64647265737300000000000000000000000000000000000000000000000000006064820152608401610249565b61045b816104b8565b50565b6000546001600160a01b031633146102f45760405162461bcd60e51b815260206004820181905260248201527f4f776e61626c653a2063616c6c6572206973206e6f7420746865206f776e65726044820152606401610249565b600080546001600160a01b038381167fffffffffffffffffffffffff0000000000000000000000000000000000000000831681178455604051919092169283917f8be0079c531659141344cd1fd0a4f28419497f9722a3daafe3b4186f6b6457e09190a35050565b634e487b7160e01b600052604160045260246000fd5b600082601f83011261054757600080fd5b813567ffffffffffffffff8082111561056257610562610520565b604051601f8301601f19908116603f0116810190828211818310171561058a5761058a610520565b816040528381528660208588010111156105a357600080fd5b836020870160208301376000602085830101528094505050505092915050565b600080604083850312156105d657600080fd5b823567ffffffffffffffff8111156105ed57600080fd5b6105f985828601610536565b95602094909401359450505050565b60006020828403121561061a57600080fd5b813567ffffffffffffffff81111561063157600080fd5b61063d84828501610536565b949350505050565b60006020828403121561065757600080fd5b81356001600160a01b038116811461066e57600080fd5b9392505050565b60005b83811015610690578181015183820152602001610678565b8381111561069f576000848401525b50505050565b600082516106b7818460208701610675565b9190910192915050565b6000826106de57634e487b7160e01b600052601260045260246000fd5b500490565b600081600019048311821515161561070b57634e487b7160e01b600052601160045260246000fd5b500290565b6001600160a01b0385168152608060208201526000845180608084015261073e8160a0850160208901610675565b604083019490945250606081019190915260a0601f909201601f191601019291505056fea2646970667358221220f5c092a09f6417753c38caaf1b0dbcb71f69f4cbcfee1c708f77fe49bb8d457464736f6c63430008090033",
  "immutableReferences": {},
  "source": "// SPDX-License-Identifier: MIT\npragma solidity ^0.8.9;\n\nimport \"@openzeppelin/contracts/access/Ownable.sol\";\nimport \"@openzeppelin/contracts/security/ReentrancyGuard.sol\";\n\ncontract Payment is Ownable, ReentrancyGuard {\n\n  event ChipsPurchased(address receiver, string size, uint256 price, uint256 amount);\n\n  address t1 = 0x402351069CFF2F0324A147eC0a138a1C21491591;\n  address t2 = 0x66B60143Fe3388551a4749aCD5C07Bbd368874ad;\n\n  mapping (string => uint256) public prices;\n  mapping (string => uint256) public amounts;\n\n  constructor() {\n    prices[\"xs\"] = 0.0099 ether;\n    prices[\"sm\"] = 0.0199 ether;\n    prices[\"md\"] = 0.027 ether;\n    prices[\"lg\"] = 0.078 ether;\n    prices[\"xl\"] = 0.149 ether;\n\n    amounts[\"xs\"] = 15;\n    amounts[\"sm\"] = 30;\n    amounts[\"md\"] = 50;\n    amounts[\"lg\"] = 150;\n    amounts[\"xl\"] = 300;\n  }\n\n  function purchaseChips(string memory _size) public payable {\n    uint256 _price = prices[_size];\n    uint256 _amount = amounts[_size];\n\n    require(msg.value >= _price, \"Ether value sent is not correct\");\n\n    emit ChipsPurchased(msg.sender, _size, _price, _amount);\n  }\n\n  function setPrice(string memory _size, uint256 _price) public onlyOwner {\n    prices[_size] = _price;\n  }\n\n  function setAmount(string memory _size, uint256 _amount) public onlyOwner {\n    prices[_size] = _amount;\n  }\n\n  function withdraw() external onlyOwner nonReentrant {\n    uint256 _balance = address(this).balance / 100;\n\n    require(payable(t1).send(_balance * 5));\n    require(payable(t2).send(_balance * 95));\n  }\n\n}",
  "sourcePath": "/Users/doss/Projects/nft-casino/packages/truffle/contracts/Payment.sol",
  "compiler": {
    "name": "solc",
    "version": "0.8.9+commit.e5eed63a.Emscripten.clang"
  },
  "schemaVersion": "3.4.7",
  "updatedAt": "2022-08-25T14:02:43.134Z",
  "networkType": "ethereum",
  "devdoc": {
    "kind": "dev",
    "methods": {
      "owner()": {
        "details": "Returns the address of the current owner."
      },
      "renounceOwnership()": {
        "details": "Leaves the contract without owner. It will not be possible to call `onlyOwner` functions anymore. Can only be called by the current owner. NOTE: Renouncing ownership will leave the contract without an owner, thereby removing any functionality that is only available to the owner."
      },
      "transferOwnership(address)": {
        "details": "Transfers ownership of the contract to a new account (`newOwner`). Can only be called by the current owner."
      }
    },
    "version": 1
  },
  "userdoc": {
    "kind": "user",
    "methods": {},
    "version": 1
  }
}