{
  "contractName": "Withdraw",
  "abi": [
    {
      "anonymous": false,
      "inputs": [
        {
          "indexed": false,
          "internalType": "address",
          "name": "receiver",
          "type": "address"
        },
        {
          "indexed": false,
          "internalType": "string",
          "name": "nonce",
          "type": "string"
        },
        {
          "indexed": false,
          "internalType": "uint256",
          "name": "amount",
          "type": "uint256"
        }
      ],
      "name": "EthClaimed",
      "type": "event"
    },
    {
      "anonymous": false,
      "inputs": [
        {
          "indexed": false,
          "internalType": "uint256",
          "name": "amount",
          "type": "uint256"
        }
      ],
      "name": "EthDeposited",
      "type": "event"
    },
    {
      "anonymous": false,
      "inputs": [
        {
          "indexed": true,
          "internalType": "address",
          "name": "previousOwner",
          "type": "address"
        },
        {
          "indexed": true,
          "internalType": "address",
          "name": "newOwner",
          "type": "address"
        }
      ],
      "name": "OwnershipTransferred",
      "type": "event"
    },
    {
      "inputs": [],
      "name": "owner",
      "outputs": [
        {
          "internalType": "address",
          "name": "",
          "type": "address"
        }
      ],
      "stateMutability": "view",
      "type": "function",
      "constant": true
    },
    {
      "inputs": [],
      "name": "renounceOwnership",
      "outputs": [],
      "stateMutability": "nonpayable",
      "type": "function"
    },
    {
      "inputs": [
        {
          "internalType": "address",
          "name": "newOwner",
          "type": "address"
        }
      ],
      "name": "transferOwnership",
      "outputs": [],
      "stateMutability": "nonpayable",
      "type": "function"
    },
    {
      "inputs": [],
      "name": "deposit",
      "outputs": [],
      "stateMutability": "payable",
      "type": "function",
      "payable": true
    },
    {
      "inputs": [
        {
          "internalType": "uint256",
          "name": "_amount",
          "type": "uint256"
        },
        {
          "internalType": "string",
          "name": "_nonce",
          "type": "string"
        },
        {
          "internalType": "bytes",
          "name": "_signature",
          "type": "bytes"
        }
      ],
      "name": "claim",
      "outputs": [],
      "stateMutability": "nonpayable",
      "type": "function"
    }
  ],
  "bytecode": "0x608060405234801561001057600080fd5b5061001a33610023565b60018055610073565b600080546001600160a01b038381166001600160a01b0319831681178455604051919092169283917f8be0079c531659141344cd1fd0a4f28419497f9722a3daafe3b4186f6b6457e09190a35050565b610b89806100826000396000f3fe60806040526004361061005a5760003560e01c8063d0e30db011610043578063d0e30db0146100a2578063d2c34d3f146100aa578063f2fde38b146100ca57600080fd5b8063715018a61461005f5780638da5cb5b14610076575b600080fd5b34801561006b57600080fd5b506100746100ea565b005b34801561008257600080fd5b50600054604080516001600160a01b039092168252519081900360200190f35b6100746100fe565b3480156100b657600080fd5b506100746100c5366004610966565b610133565b3480156100d657600080fd5b506100746100e53660046109fe565b61036d565b6100f26103fd565b6100fc6000610457565b565b6040513481527f44863bc9b335caf97ca3a3ab6fb67776965a88292ed53b0679f8eae4a67b630c9060200160405180910390a1565b6002600154141561018b5760405162461bcd60e51b815260206004820152601f60248201527f5265656e7472616e637947756172643a207265656e7472616e742063616c6c0060448201526064015b60405180910390fd5b6002600155600061019e843385856104bf565b90506101b26000546001600160a01b031690565b6001600160a01b0316816001600160a01b0316146102125760405162461bcd60e51b815260206004820152601760248201527f4e6f7420617574686f72697a656420746f20636c61696d0000000000000000006044820152606401610182565b6002836040516102229190610a5e565b9081526040519081900360200190205460ff16156102825760405162461bcd60e51b815260206004820152601760248201527f4e6f7420617574686f72697a656420746f20636c61696d0000000000000000006044820152606401610182565b600084116102d25760405162461bcd60e51b815260206004820181905260248201527f5468657265206973206e6f20616d6f756e74206c65667420746f20636c61696d6044820152606401610182565b604051339085156108fc029086906000818181858888f193505050506102f757600080fd5b60016002846040516103099190610a5e565b908152604051908190036020018120805492151560ff19909316929092179091557f1b5caa6485d10d6ce5a18a344356990ebc1d566283d1f47a6c6dcbd3dfac81969061035b90339086908890610a7a565b60405180910390a15050600180555050565b6103756103fd565b6001600160a01b0381166103f15760405162461bcd60e51b815260206004820152602660248201527f4f776e61626c653a206e6577206f776e657220697320746865207a65726f206160448201527f64647265737300000000000000000000000000000000000000000000000000006064820152608401610182565b6103fa81610457565b50565b6000546001600160a01b031633146100fc5760405162461bcd60e51b815260206004820181905260248201527f4f776e61626c653a2063616c6c6572206973206e6f7420746865206f776e65726044820152606401610182565b600080546001600160a01b038381167fffffffffffffffffffffffff0000000000000000000000000000000000000000831681178455604051919092169283917f8be0079c531659141344cd1fd0a4f28419497f9722a3daafe3b4186f6b6457e09190a35050565b60006105438261053d8787876040516020016104dd93929190610ac5565b60408051601f1981840301815282825280516020918201207f19457468657265756d205369676e6564204d6573736167653a0a33320000000084830152603c8085019190915282518085039091018152605c909301909152815191012090565b9061054c565b95945050505050565b600080600061055b8585610570565b91509150610568816105e0565b509392505050565b6000808251604114156105a75760208301516040840151606085015160001a61059b8782858561079b565b945094505050506105d9565b8251604014156105d157602083015160408401516105c6868383610888565b9350935050506105d9565b506000905060025b9250929050565b60008160048111156105f4576105f4610b17565b14156105fd5750565b600181600481111561061157610611610b17565b141561065f5760405162461bcd60e51b815260206004820152601860248201527f45434453413a20696e76616c6964207369676e617475726500000000000000006044820152606401610182565b600281600481111561067357610673610b17565b14156106c15760405162461bcd60e51b815260206004820152601f60248201527f45434453413a20696e76616c6964207369676e6174757265206c656e677468006044820152606401610182565b60038160048111156106d5576106d5610b17565b141561072e5760405162461bcd60e51b815260206004820152602260248201527f45434453413a20696e76616c6964207369676e6174757265202773272076616c604482015261756560f01b6064820152608401610182565b600481600481111561074257610742610b17565b14156103fa5760405162461bcd60e51b815260206004820152602260248201527f45434453413a20696e76616c6964207369676e6174757265202776272076616c604482015261756560f01b6064820152608401610182565b6000807f7fffffffffffffffffffffffffffffff5d576e7357a4501ddfe92f46681b20a08311156107d2575060009050600361087f565b8460ff16601b141580156107ea57508460ff16601c14155b156107fb575060009050600461087f565b6040805160008082526020820180845289905260ff881692820192909252606081018690526080810185905260019060a0016020604051602081039080840390855afa15801561084f573d6000803e3d6000fd5b5050604051601f1901519150506001600160a01b0381166108785760006001925092505061087f565b9150600090505b94509492505050565b6000807f7fffffffffffffffffffffffffffffffffffffffffffffffffffffffffffffff8316816108be60ff86901c601b610b2d565b90506108cc8782888561079b565b935093505050935093915050565b634e487b7160e01b600052604160045260246000fd5b600067ffffffffffffffff8084111561090b5761090b6108da565b604051601f8501601f19908116603f01168101908282118183101715610933576109336108da565b8160405280935085815286868601111561094c57600080fd5b858560208301376000602087830101525050509392505050565b60008060006060848603121561097b57600080fd5b83359250602084013567ffffffffffffffff8082111561099a57600080fd5b818601915086601f8301126109ae57600080fd5b6109bd878335602085016108f0565b935060408601359150808211156109d357600080fd5b508401601f810186136109e557600080fd5b6109f4868235602084016108f0565b9150509250925092565b600060208284031215610a1057600080fd5b81356001600160a01b0381168114610a2757600080fd5b9392505050565b60005b83811015610a49578181015183820152602001610a31565b83811115610a58576000848401525b50505050565b60008251610a70818460208701610a2e565b9190910192915050565b6001600160a01b03841681526060602082015260008351806060840152610aa8816080850160208801610a2e565b604083019390935250601f91909101601f19160160800192915050565b8381527fffffffffffffffffffffffffffffffffffffffff0000000000000000000000008360601b16602082015260008251610b08816034850160208701610a2e565b91909101603401949350505050565b634e487b7160e01b600052602160045260246000fd5b60008219821115610b4e57634e487b7160e01b600052601160045260246000fd5b50019056fea26469706673582212201e4240b86537814702528391c949a7786cfa12bcd10d938d02f539ecbccfc0a064736f6c63430008090033",
  "immutableReferences": {},
  "source": "// SPDX-License-Identifier: MIT\npragma solidity ^0.8.9;\n\nimport \"@openzeppelin/contracts/access/Ownable.sol\";\nimport \"@openzeppelin/contracts/utils/cryptography/ECDSA.sol\";\nimport \"@openzeppelin/contracts/security/ReentrancyGuard.sol\";\n\ncontract Withdraw is Ownable, ReentrancyGuard {\n  using ECDSA for bytes32;\n\n  event EthDeposited(uint256 amount);\n  event EthClaimed(address receiver, string nonce, uint256 amount);\n\n  mapping(string => bool) private _usedNonces;\n\n  function deposit() public payable {\n    emit EthDeposited(msg.value);\n  }\n\n  function claim(uint256 _amount, string memory _nonce, bytes memory _signature) public nonReentrant {\n    address signer = recoverSigner(_amount, msg.sender, _nonce, _signature);\n    require(signer == owner(), \"Not authorized to claim\");\n    require(!_usedNonces[_nonce], \"Not authorized to claim\");\n\n    require(_amount > 0, \"There is no amount left to claim\");\n    require(payable(msg.sender).send(_amount));\n\n    _usedNonces[_nonce] = true;\n\n    emit EthClaimed(msg.sender, _nonce, _amount);\n  }\n\n  function recoverSigner(uint256 _amount, address _wallet, string memory _nonce, bytes memory _signature) private pure returns (address){\n    return keccak256(abi.encodePacked(_amount, _wallet, _nonce)).toEthSignedMessageHash().recover(_signature);\n  }\n}",
  "sourcePath": "/Users/doss/Projects/nft-casino/packages/truffle/contracts/Withdraw.sol",
  "compiler": {
    "name": "solc",
    "version": "0.8.9+commit.e5eed63a.Emscripten.clang"
  },
  "schemaVersion": "3.4.7",
  "updatedAt": "2022-08-14T11:50:56.570Z",
  "networkType": "ethereum",
  "devdoc": {
    "kind": "dev",
    "methods": {
      "owner()": {
        "details": "Returns the address of the current owner."
      },
      "renounceOwnership()": {
        "details": "Leaves the contract without owner. It will not be possible to call `onlyOwner` functions anymore. Can only be called by the current owner. NOTE: Renouncing ownership will leave the contract without an owner, thereby removing any functionality that is only available to the owner."
      },
      "transferOwnership(address)": {
        "details": "Transfers ownership of the contract to a new account (`newOwner`). Can only be called by the current owner."
      }
    },
    "version": 1
  },
  "userdoc": {
    "kind": "user",
    "methods": {},
    "version": 1
  }
}